:020000040800F2
:10300000004000207D5A0008295400082B54000875
:103010002D5400082F54000831540008000000000F
:103020000000000000000000000000003354000811
:1030300035540008000000003754000839540008D7
:10304000CD5A0008CD5A00083D540008CD5A00085A
:10305000CD5A0008CD5A0008CD5A0008495400083E
:10306000CD5A0008CD5A0008CD5A0008CD5A0008A4
:10307000CD5A0008CD5A0008CD5A00085154000816
:10308000CD5A0008CD5A0008CD5A0008CD5A000884
:1030900000000000CD5A0008CD5A0008CD5A0008A3
:1030A000CD5A0008CD5A0008CD5A0008CD5A000864
:1030B000CD5A0008CD5A0008CD5A0008CD5A000854
:1030C000CD5A0008CD5A0008CD5A0008CD5A000844
:1030D000CD5A00085D540008CD5A0008CD5A0008AA
:1030E000CD5A0008CD5A000869540008CD5A00088E
:1030F000CD5A00080000000000000000CD5A000872
:10310000CD5A0008CD5A000875540008CD5A000861
:10311000CD5A0008CD5A0008CD5A0008CD5A0008F3
:10312000CD5A0008CD5A0008CD5A0008CD5A0008E3
:08313000CD5A0008CD5A000839
:1031400010B5054C237833B9044B13B10448AFF3E1
:1031500000800123237010BD7C00002000000000CF
:103160008CD8000808B5034B1BB103490348AFF3E3
:10317000008008BD00000000800000208CD80008FE
:10318000034613F8012B002AFBD1181A01387047A7
:1031900001F0FF01102A2BDB10F0070F08D010F808
:1031A000013B013A8B422DD010F0070F42B3F6D10C
:1031B000F0B441EA012141EA014122F007047FF025
:1031C00000070023F0E80256083C85EA010586EA7C
:1031D000010685FA47F5A3FA87F586FA47F6A5FAB8
:1031E00087F68EB9EED1F0BC01F0FF0102F00702C4
:1031F00032B110F8013B013A83EA010313B1F8D16F
:103200000020704701387047002D06BF354603384F
:10321000073815F0010F07D1013015F4807F02BF88
:10322000013015F4C03F0130F0BC0138704700BFD9
:1032300080F0004002E000BF81F0004142001FBF6B
:103240005FEA410392EA030F7FEA226C7FEA236C74
:103250006AD04FEA1262D2EB1363C1BFD218414069
:1032600048404140B8BF5B42192B88BF704710F0FF
:10327000004F40F4000020F07F4018BF404211F0A2
:10328000004F41F4000121F07F4118BF494292EA0A
:10329000030F3FD0A2F1010241FA03FC10EB0C0036
:1032A000C3F1200301FA03F100F0004302D54942C3
:1032B00060EB4000B0F5000F13D3B0F1807F06D370
:1032C00040084FEA310102F10102FE2A51D2B1F168
:1032D000004F40EBC25008BF20F0010040EA03005D
:1032E0007047490040EB0000013A28BFB0F5000FDD
:1032F000EDD2B0FA80FCACF1080CB2EB0C0200FA93
:103300000CF0AABF00EBC25052421843BCBFD040E1
:103310001843704792F0000F81F4000106BF80F45B
:1033200000000132013BB5E74FEA41037FEA226C1E
:1033300018BF7FEA236C21D092EA030F04D092F0E9
:10334000000F08BF0846704790EA010F1CBF00201D
:10335000704712F07F4F04D1400028BF40F000407A
:10336000704712F100723CBF00F50000704700F09A
:10337000004343F0FE4040F4000070477FEA2262C1
:1033800016BF08467FEA23630146420206BF5FEA92
:10339000412390EA010F40F4800070474FF0000392
:1033A00004E000BF10F0004348BF40425FEA000C59
:1033B00008BF704743F0964301464FF000001CE001
:1033C00050EA010208BF70474FF000030AE000BF57
:1033D00050EA010208BF704711F0004302D5404295
:1033E00061EB41015FEA010C02BF84460146002007
:1033F00043F0B64308BFA3F18053A3F50003BCFA22
:103400008CF2083AA3EBC25310DB01FA02FC6344CE
:1034100000FA02FCC2F12002BCF1004F20FA02F2D5
:1034200043EB020008BF20F00100704702F12002C8
:1034300001FA02FCC2F1200250EA4C0021FA02F229
:1034400043EB020008BF20EADC7070474FF0FF0C2E
:103450001CEAD0521EBF1CEAD15392EA0C0F93EA29
:103460000C0F6FD01A4480EA010C400218BF5FEACB
:1034700041211ED04FF0006343EA501043EA51113E
:10348000A0FB01310CF00040B1F5000F3EBF490038
:1034900041EAD3715B0040EA010062F17F02FD2A3C
:1034A0001DD8B3F1004F40EBC25008BF20F001001F
:1034B000704790F0000F0CF0004C08BF49024CEA36
:1034C000502040EA51207F3AC2BFD2F1FF0340EAC8
:1034D000C250704740F400004FF00003013A5DDC39
:1034E00012F1190FDCBF00F000407047C2F100027A
:1034F000410021FA02F1C2F1200200FA02FC5FEA67
:10350000310040F1000053EA4C0308BF20EADC70B0
:10351000704792F0000F00F0004C02BF400010F422
:10352000000F013AF9D040EA0C0093F0000F01F0CF
:10353000004C02BF490011F4000F013BF9D041EAF1
:103540000C018FE70CEAD15392EA0C0F18BF93EAF3
:103550000C0F0AD030F0004C18BF31F0004CD8D11D
:1035600080EA010000F00040704790F0000F17BFA4
:1035700090F0004F084691F0000F91F0004F14D0EA
:1035800092EA0C0F01D142020FD193EA0C0F03D142
:103590004B0218BF084608D180EA010000F0004045
:1035A00040F0FE4040F40000704740F0FE4040F420
:1035B000400070474FF0FF0C1CEAD0521EBF1CEABF
:1035C000D15392EA0C0F93EA0C0F69D0A2EB0302DD
:1035D00080EA010C49024FEA402037D04FF0805377
:1035E00043EA111143EA10130CF000408B4238BF3C
:1035F0005B0042F17D024FF4000C8B4224BF5B1A4A
:1036000040EA0C00B3EB510F24BFA3EB510340EA97
:103610005C00B3EB910F24BFA3EB910340EA9C0045
:10362000B3EBD10F24BFA3EBD10340EADC001B01B5
:1036300018BF5FEA1C1CE0D1FD2A3FF650AF8B4259
:1036400040EBC25008BF20F0010070470CF0004C66
:103650004CEA50207F32C2BFD2F1FF0340EAC25091
:10366000704740F400004FF00003013A37E792F052
:10367000000F00F0004C02BF400010F4000F013AB0
:10368000F9D040EA0C0093F0000F01F0004C02BFAB
:10369000490011F4000F013BF9D041EA0C0195E714
:1036A0000CEAD15392EA0C0F08D142027FF47DAFAD
:1036B00093EA0C0F7FF470AF084676E793EA0C0F9D
:1036C00004D14B023FF44CAF08466EE730F0004C9B
:1036D00018BF31F0004CCAD130F000427FF45CAF2B
:1036E00031F000437FF43CAF5FE700BF4FF0FF3C99
:1036F00006E000BF4FF0010C02E000BF4FF0010CEC
:103700004DF804CD4FEA40024FEA41037FEA226CB4
:1037100018BF7FEA236C11D001B052EA530C18BFD6
:1037200090EA010F58BFB2EB030088BFC81738BF3B
:103730006FEAE17018BF40F0010070477FEA226C29
:1037400002D15FEA402C05D17FEA236CE4D15FEA25
:10375000412CE1D05DF8040B704700BF8446084659
:103760006146FFE70FB5FFF7C9FF002848BF10F11A
:10377000000F0FBD4DF808EDFFF7F4FF0CBF01205F
:1037800000205DF808FB00BF4DF808EDFFF7EAFFE9
:1037900034BF012000205DF808FB00BF4DF808EDA4
:1037A000FFF7E0FF94BF012000205DF808FB00BF99
:1037B0004DF808EDFFF7D2FF94BF012000205DF81F
:1037C00008FB00BF4DF808EDFFF7C8FF34BF01202C
:1037D00000205DF808FB00BF4FEA40024FEA4103BA
:1037E0007FEA226C02D15FEA402C08D17FEA236C89
:1037F00002D15FEA412C02D14FF0000070474FF038
:10380000010070474FEA4002B2F1FE4F0FD34FF074
:103810009E03B3EB12620DD94FEA002343F000433D
:1038200010F0004F23FA02F018BF404270474FF0EB
:103830000000704712F1610F01D1420205D110F072
:10384000004008BF6FF0004070474FF00000704725
:1038500042000ED2B2F1FE4F0BD34FF09E03B3EBFA
:10386000126209D44FEA002343F0004323FA02F026
:1038700070474FF00000704712F1610F01D1420212
:1038800002D14FF0FF3070474FF00000704700BF8B
:1038900053B94AB9002908BF00281CBF4FF0FF31B7
:1038A0004FF0FF3000F06AB9ADF1080C6DE904CEBD
:1038B00000F006F8DDF804E0DDE9022304B070470B
:1038C0002DE9F047089D0C46002B4ED194468C45BF
:1038D0008646B2FA82F262D94AB1C2F1200391401F
:1038E00020FA03F30CFA02FC194300FA02FE4FEA35
:1038F0001C471FFA8CF6B1FBF7F44FEA1E4307FB97
:10390000141143EA014304FB06F199420AD91CEB66
:10391000030304F1FF3080F01281994240F20F81DD
:10392000023C6344591A1FFA8EF3B1FBF7F007FB10
:10393000101143EA014300FB06F69E420AD91CEB34
:10394000030300F1FF3180F0FC809E4240F2F980D9
:10395000634402389B1B40EA044000211DB1D34060
:103960000022C5E90032BDE8F0878B4205D90DB1D0
:10397000C5E9000100210846F5E7B3FA83F1002903
:1039800046D1A34202D39042C0F0F080861A64EB85
:1039900003030120002DE6D0C5E90063E3E7002A18
:1039A00040F09080A1EB0C044FEA1C481FFA8CF702
:1039B0000121B4FBF8F64FEA1E4308FB164443EA24
:1039C000044307FB06F0984208D91CEB030306F1F9
:1039D000FF3402D2984200F2CD8026461C1A1FFA0C
:1039E0008EF3B4FBF8F008FB104443EA044300FBF9
:1039F00007F79F4208D91CEB030300F1FF3402D202
:103A00009F4200F2B0802046DB1B40EA0640A5E75B
:103A1000C1F120068B4022FA06F71F4320FA06FC6C
:103A200004FA01F343EA0C03F44000FA01F8380CFD
:103A30004FEA1349B4FBF0FE1FFA87FC00FB1E445B
:103A400049EA04440EFB0CF9A14502FA01F20AD935
:103A50003C190EF1FF3A80F08480A14540F281804C
:103A6000AEF1020E3C44A4EB09041FFA83F9B4FB47
:103A7000F0F300FB134449EA044403FB0CFCA445A7
:103A800007D93C1903F1FF3067D2A44565D9023B41
:103A90003C4443EA0E40A0FB0293A4EB0C049C427E
:103AA000CE469C4651D34ED055B1B8EB0E0364EBD5
:103AB0000C0404FA06F6CB401E43CC40C5E9006472
:103AC000002150E7C2F1200320FA03F10CFA02FCB6
:103AD00024FA03F394400C434FEA1C4800FA02FE18
:103AE0001FFA8CF7B3FBF8F008FB1031230C43EA04
:103AF000014300FB07F1994208D91CEB030300F1D5
:103B0000FF362CD299422AD9023863445B1AA4B2F8
:103B1000B3FBF8F108FB113344EA034401FB07F35C
:103B2000A34208D91CEB040401F1FF3613D2A342CF
:103B300011D902396444E41A41EA004139E70446E4
:103B4000F0E6084606E7C845AED2B9EB020E63EBD5
:103B5000070C0138A8E73146EDE7034699E7304600
:103B6000D4E7D6467FE7634402384DE7064623464E
:103B700008460FE7023E634430E700BF704700BFCE
:103B8000F7B5154606460F4603F0D4FA154B16480E
:103B90004FF400421A6106F17842D30A022102EB87
:103BA000C502C0E90013C3EBD223DB0A013301A92C
:103BB000836003F057FB044680B9083FAC4206EB34
:103BC000C40103DB03F0C8FA002009E0F7E902238F
:103BD000012003F001FB08B90134EFE703F0C8FA54
:103BE00003B0F0BD00400058A4000020520092B283
:103BF00000EB8202091A904200D1704703680B5013
:103C00000430F8E710B5ADF5FA6D0446FA22044821
:103C10006946FFF7EBFF1DF904000DF5FA6D10BDC5
:103C200000F8010810B5ADF5FA6D0446FA22044813
:103C30006946FFF7DBFF5DF804000DF5FA6D10BD76
:103C400000F8010870B50A4EADF5FA6D04460D4650
:103C500030466946FA22FFF7C9FFFA226946304624
:103C60000DF80450FFF78CFF0DF5FA6D70BD00BF25
:103C700000F8010870B50A4EADF5FA6D04460D4620
:103C800030466946FA22FFF7B1FFFA22694630460C
:103C90004DF80450FFF774FF0DF5FA6D70BD00BFCD
:103CA00000F8010813B5044603F044FA0A4B0B4828
:103CB0004FF400421A6104F1784402230360E40ADD
:103CC000012301A94460836003F0CCFA08B103F03A
:103CD0004FFA02B010BD00BF00400058980000200D
:103CE0001148124A08B50023C0E9002304224261AA
:103CF0000122C0E90233C0E90933C0E90C33036192
:103D000003838376C26180F8203080F82C3083638F
:103D100080F83C30C36402F051FE18B1BDE80840A1
:103D200001F006B908BD00BFB0000020002401402A
:103D300010B596B004461422002103A809F014F926
:103D40003822002108A809F00FF92268184B9A427E
:103D50002BD14FF48043089308A84FF0805313935E
:103D600004F0BAFC08B101F0E3F84FF0B04303A946
:103D70001A6E42F400721A661A6E02F4007202920F
:103D8000029ADA6C42F00102DA64DB6C03F00103A0
:103D90000193019B4FF480620323CDE903234FF08D
:103DA00090400023059303F0ABFA16B010BD00BF9E
:103DB00000240140F8B50546174609F0EAF8044624
:103DC00060B1461B2846FFF7DBF9C6F10102013658
:103DD00002442146A81909F0ADF82770F8BDF8B5DE
:103DE000164607460C461D46FFF7CAF9B04211D3E6
:103DF000731983420EDCB81900239D4205DC25EAC5
:103E0000E575002363552046F8BD10F8012BE254F8
:103E10000133F2E70024F6E770B50E46144600259C
:103E2000A54205DB0CD10378002B08BF002070BD34
:103E3000314609F0A1F80028F9D001300135EFE74B
:103E40000020F4E72DE9F043B34C89B000F014FFF3
:103E500014233C222146B14806F0DCF8B049412247
:103E60002046FFF7A7FF01224FF480714FF09040EA
:103E700003F066FBAB49204609F08BF8054688B194
:103E80004FF0904000224FF4807103F059FB204620
:103E900001F096F83C220021204609B0BDE8F0432D
:103EA00009F062B8A049204609F073F8C8B10420AF
:103EB000FFF7B8FE064600F0A3FC9C4B0095CDE949
:103EC00001502A462946022008F08EFA0A2001F005
:103ED00059FB0096964B2A462946022008F084FAA0
:103EE000D8E79449204609F054F8054610B102F08D
:103EF00007FACFE79049204609F04BF8064648B14B
:103F00008E4B01221A7029468D4B2A46022008F05A
:103F10006BFABFE78B49204609F03BF8054648B3EA
:103F200031465020FFF7A6FE8748FFF7BBFE31461B
:103F300004465020FFF79EFE94B9844B224621464A
:103F4000012008F051FA4FF0904022464FF4807162
:103F500003F0F6FAC82001F015FB02F093FE05E02D
:103F60007B4B32463146012008F03EFA3C220021CC
:103F7000694892E77749204609F00BF890B1764BF3
:103F80002A462946012008F02FFA3C2229462046DD
:103F900008F0EAFF642001F0F5FA09B0BDE8F0434B
:103FA00002F070BE6D49204608F0F3FF054670B37D
:103FB0002046FFF7E5F83D210546204608F0DCFFE6
:103FC000021BAB1A013B013205A92046FFF707FF90
:103FD00005A808F07BFE624B421F9A42044611D8A6
:103FE00001460420FFF746FE0420FFF71BFE5D4B51
:103FF00018605D4B012284421A70B7D14C4B00947B
:10400000002207E1594B002211460220ACE7584933
:10401000204608F0BEFF20B10420FFF703FE009009
:1040200058E75449204608F0B4FF58B32046FFF73C
:10403000A7F83D210546204608F09EFF021BAB1A5B
:10404000013B013205A92046FFF7C9FE05A808F08B
:104050003DFE441E072C13D8E1B26420FFF7F2FDA9
:104060006420FFF7CFFD844280D10134424B00949D
:1040700000221146022008F0B7F94FF47A706AE77F
:104080003E4BC0E73E49204608F083FF30B1642034
:10409000FFF7B8FD0130384B0090B1E739491E48B1
:1040A00008F077FF064638B31B48FFF769F83D2153
:1040B0000546194808F060FF021BAB1A013B0132AC
:1040C00005A91548FFF78BFE05A808F0FFFD4FF680
:1040D000FE73421E9A4204460CD801466C20FFF73C
:1040E000C9FD6C20FFF79EFD84427FF43FAF264B55
:1040F000009485E7254B86E72549074808F049FFE6
:104100000546002846D06C20FFF78CFD1E4B009022
:1041100032463146022088E014010020680B00205E
:1041200005DB0008D7D80008DFD80008EAD8000867
:1041300021D900082CD9000837D90008FF0C00202D
:104140003DD9000849D9000800F8010852D90008F3
:104150005CD9000869D9000872D900087CD9000828
:104160007B51010004000020000D002087D90008C9
:1041700095D900089FD90008A6D90008ADD9000834
:10418000B7D90008BDD90008C8D90008D3D900089C
:10419000E1D90008AF49B04808F0FBFE40B3AE4893
:1041A000FEF7EEFF3D210646AB4808F0E5FE021B98
:1041B000B31A013B013205A9A748FFF710FE05A875
:1041C00008F084FD0428044606D9A44B2A46294653
:1041D000022008F009F9C0E0C1B20820FFF732FD63
:1041E0000820FFF70FFDA0422AD19D4B00903FE72A
:1041F0009C49994808F0CDFE20B30820FFF702FD46
:1042000004281DD8DFE800F003080C141800002271
:10421000954B009211467DE701230093934BEFE607
:1042200002200022924B0090114608F0DDF89DE636
:10423000032300938F4BE3E6042300938E4BDFE6CA
:10424000864BE0E68D49844808F0A3FE064640B35D
:104250008148FEF795FF3D2105467F4808F08CFE1A
:10426000021BAB1A013B7C48013205A9FFF7B7FDE1
:104270009DF81440A4F14103022B10D821460C20D4
:10428000FFF7E0FC0C20FFF7BDFC412CC0B202D1CF
:104290007B4B0090B4E6432C7FF468AEF8E7784B94
:1042A000B1E678496C4808F074FE054630B10C2040
:1042B000FFF7A8FCC0B2724B009029E7724966482C
:1042C00008F067FE064600284AD06348FEF758FF0C
:1042D0003D210646604808F04FFE021BB31A013B21
:1042E000013205A95C48FFF77AFD2A462C2105A872
:1042F000FFF792FD08F0EAFC01222C21074605A8F1
:10430000FFF78AFD08F0E2FC022206462C2105A8F0
:10431000FFF782FD08F0DAFCF9B204461420FFF73B
:1043200091FCF1B21820FFF78DFCE1B21C20FFF7E1
:1043300089FC1420FFF766FC04461820FFF762FC96
:1043400006461C20FFF75EFC504B0094CDE901604F
:104350002A462946022008F047F83C22294607E66B
:104360004B493D4808F015FE0546A0B11420FFF763
:1043700049FC04461820FFF745FC05461C20FFF7C2
:1043800041FC424B0094CDE90150324631460220B7
:1043900008F02AF8EAE53F492F4808F0FAFD58B33B
:1043A0002D48FEF7EDFE3D2106462B4808F0E4FDC2
:1043B000021BB31A013B05A901322748FFF70FFD85
:1043C0002A462C2105A8FFF727FD08F07FFCC1B283
:1043D0001820FFF737FC1820FFF714FC2E4B009035
:1043E0002A462946022007F0FFFF4FF47A7001F0B9
:1043F000C9F802F047FCB0E72849174808F0C9FDA2
:1044000028B11820FFF7FEFB234B0090F8E5244964
:10441000114808F0BEFD0646002859D00E48FEF7A8
:10442000AFFE3D2105460C4808F0A6FD021BAB1A65
:10443000013B013205A90848FFF7D1FC00222C21DD
:1044400005A8FFF7E9FC08F041FC441E772C2BD9A6
:10445000144BD8E5EBD9000814010020F4D900086A
:1044600000DA000809DA000811DA00081DDA00088D
:1044700029DA000835DA000841DA00084DDA0008C8
:1044800057DA000861DA00086ADA000876DA00080C
:1044900088DA000893DA00089ADA0008A1DA00083E
:1044A000A7DA0008B1DA0008754BC1B260201970B4
:1044B000FFF7C8FB0F236420B4FBF3F1C9B2FFF789
:1044C000C1FB6020FFF79EFBC0B26E4B009097E5EA
:1044D0006D496E4808F05DFD054630B16020FFF77C
:1044E00091FBC0B2674B009012E66949674808F03B
:1044F00050FD0646B8B36548FEF742FE3D2106462C
:10450000624808F039FD021BB31A013B05A90132CC
:104510005E48FFF764FC2A462C2105A8FFF77CFCC7
:1045200008F0D4FB012206462C2105A8FFF774FCF5
:1045300008F0CCFBF1B204462420FFF79BFB214698
:104540002820FFF797FB2420FFF76CFB0446282068
:10455000FFF768FB4F4BCDE900402A462946022071
:1045600007F042FFF9E64C49484808F012FD0546BD
:1045700078B12420FFF756FB04462820FFF752FBB2
:10458000444BCDE9004032463146022007F02CFF73
:10459000ECE442493D4808F0FCFC064600285FD0A8
:1045A0000C20FFF72FFB04460820FFF72BFB81466A
:1045B0001420FFF727FB06461820FFF723FB0746CA
:1045C0001C20FFF71FFBE4B2354B00942A46294616
:1045D0008046022007F008FF5FFA89F0042896BFA2
:1045E000304BDFF8C49053F820906420FFF70AFBAB
:1045F00005466020FFF706FB04466C20FFF712FB20
:1046000000221146294B0090022007F0EDFE002207
:104610001146274BCDF80090022007F0E5FE01354A
:1046200000221146234B0095022007F0DDFEE4B284
:104630000022144B00941146022007F0D5FE3C22C4
:104640000021124808F090FC0022CDE901781A4BB5
:1046500000961146022007F0C7FE09B0BDE8F083BE
:1046600016490A4808F095FC054618B1144B324625
:104670003146CAE42378002BEFD0124BA6E500BFE9
:1046800010000020BEDA0008C8DA0008140100207B
:10469000D1DA0008DCDA0008EADA0008F4DA000807
:1046A00057DA000828DB0008D1D80008C8D900086C
:1046B000FBDA0008A6D9000876DA000804DB000857
:1046C00058D90008B7DA000810B5064C70202168E8
:1046D000FFF7D0FA044B22681A6000F04BFF034B3F
:1046E000186010BD5C01002058010020500100201E
:1046F00008B50C4B19680C4B1868FEF79DFD0B496B
:1047000020F00040FFF754F818B1BDE80840FFF76B
:10471000DBBF00F02FFF064B1B68C01A054B984209
:10472000F3D808BD580100205C0100200000404083
:1047300050010020FFFFA20208B500F01BFF014B53
:10474000186008BD5401002070B5044600F012FF47
:104750001A4B1B68C01AFEF721FE1949FEF72AFF03
:1047600018490546FEF76AFD01462046FEF764FD3E
:1047700000210446FFF708F800B100241249134E47
:104780002046FEF717FF1249FEF760FE1149FEF7BB
:1047900055FD0D4904462846FEF70CFF0E49FEF76D
:1047A00055FE01462046FEF749FD3168FEF746FDFD
:1047B0003060BDE87040FFF79BBF00BF5401002090
:1047C00000007A44EC51383D000061455C01002056
:1047D00014AE473E6F12033A0000BE42064B074834
:1047E000196810B5FEF728FD00210446FEF7CCFF3E
:1047F00000B10024204610BD5C01002000709446EA
:1048000010B5FFF7EBFF0E49FEF7D4FE0D49FEF79A
:104810001DFE00210446FEF7B7FF68B9094920468E
:10482000FEF7D0FF50B94FF07C512046FEF706FD51
:10483000FFF70EF8C0B210BD0024F4E7014CF2E718
:10484000007094460000C842F0B5702085B0FFF7B4
:10485000E9F9284C431C0ABF002320602360256827
:1048600029462846FEF7B8FF48B900212846FEF73A
:104870008BFF20B920492846FEF7A4FF08B100238A
:1048800023601E4B22681A6000F074FE1C4B1860F7
:10489000FFF7A4FF0646FFF7B3FF04463046FEF7D6
:1048A000B1FF05462046FEF779FD07462046FEF794
:1048B00079FD01463846FEF7BFFC1249FEF7C6FDFA
:1048C000FEF7A0FFCDE902402846FEF76BFD01464A
:1048D0003046FEF7B1FC0B49FEF7B8FDFEF792FF3C
:1048E0000022CDE90050084B1146012007F07CFD65
:1048F00005B0F0BD5C010020007094465801002016
:10490000500100200000C8423CDB000838B50021FF
:104910000446FEF739FF00B10024084D084920463F
:10492000FEF748FE0749FEF791FD2968FEF786FC71
:104930002860BDE83840FFF7DBBE00BF5C01002007
:10494000000061450000A04010B5074CFEF726FDB1
:104950000649FEF77BFD2168FEF770FC2060BDE88C
:104960001040FFF7C5BE00BF5C0100206F12033A84
:104970004FF0B04307B59A6C42F004029A649A6C07
:1049800002F004020192019A9A6C42F001029A64C8
:104990009B6C03F001030093002202210F20009B77
:1049A00002F01EF90F2003B05DF804EB02F04AB9E3
:1049B00008B502F0BFFB10B16FF0040008BD064B54
:1049C0009A6942F040429A614CF2FA321A6102F05E
:1049D000C3FB0028F2D0EFE700400058F0B585B0E7
:1049E00000230D4600930646A8B3FFF7E1FF0446F7
:1049F00070BB02F09FFB88BB1A481B4A022301933D
:104A0000D0F8E01506F1784302EA8121B3FBF1F713
:104A100001FB1733DB0A0293D0F8E00505F178417A
:104A20000139314402EA8022B1FBF2F002FB10119D
:104A3000C3EBD1230133694601A8039302F012FCB2
:104A400020B1022814BF6FF00104012402F084FB9E
:104A5000204605B0F0BD6FF00504F9E76FF00404DF
:104A6000F6E700BF0070FF1F00FCFF03014B18605A
:104A700000207047600100202DE9F04FB0F1006F79
:104A800089B006460F469046C0F0C080DFF890918E
:104A9000644DD9F8E03505EA832303F10063013B57
:104AA000984200F2B380002900F0B38040EA02038C
:104AB0005B0740F0AE80FFF77BFF044690BB02F03F
:104AC00039FB002840F0A880D9F8E015009705EAE6
:104AD000812106F17842B2FBF1F301FB132208F1C8
:104AE0007843013B3344B3FBF1F001FB1033DB0AA5
:104AF00001334FEAD22AA3EBD222012A039388BFC3
:104B0000C6F30A050AF58037C6F108038CBFC5F560
:104B100000654546FF02B3460693039B9A4505D3BD
:104B200002F01AFB204609B0BDE8F08FA6F1080399
:104B3000069A1A4495421CD8009B04950193CDF81F
:104B400014B04FF00009059B09EB0301049B994544
:104B50003DD3009BAB442B44A8EB0505B5F5006F96
:104B6000009328BF4FF400650AF1010A07F50067BA
:104B7000D3E753F8081F5A68B2F1FF3F08BFB1F1FD
:104B8000FF3FD5D0284B186810B96FF00504C7E770
:104B900027B14FF40062394607F02CFDDFF888900A
:104BA0000099D9F80030CBF30A001844AAB207F0F4
:104BB00021FD4FF400613846FFF710FF00BBD9F824
:104BC000003001934FF4006305970493B9E7019B0C
:104BD00007914B4402930120D3E9002302F0FCFA31
:104BE00088B90799019BD1E9000259F80310029B8B
:104BF0005B689A4208BF884205D109F10809A2E71B
:104C00006FF001048CE76FF0030489E74FF0FF3485
:104C100088E76FF0050485E76FF0040482E700BFC2
:104C20000070FF1F00FCFF0360010020B0F1006F67
:104C300010B40DD3084BD3F8E045084B03EA8423A6
:104C400003F10063013B984202D810BCFFF7C6BED7
:104C50004FF0FF3010BC70470070FF1F00FCFF03D7
:104C60004FF0B04382B0DA6C0243DA64DB6C03408D
:104C70000193019B02B070472DE9F04186B01422E8
:104C8000002101A808F070F90220FFF7E9FF0120D8
:104C9000FFF7E6FFDFF8A8802A4F0420FFF7E0FFC8
:104CA00048F2101100224FF0904002F049FC4046BB
:104CB00000224FF4805102F043FC002238464FF4AA
:104CC000005102F03DFC002402264FF4881301A994
:104CD0004FF090400125CDE90163039402F010FBF1
:104CE00048F2101301A94FF09040CDE90135CDE90C
:104CF000034402F005FB4FF48053CDE9013501A9CF
:104D0000032340460493039402F0FAFA01A94FF4F6
:104D100000533846CDE90135CDE9034402F0F0FAFD
:104D2000094B0720DE6001F0D3FF22462146072011
:104D300001F056FF072001F085FF06B0BDE8F081C5
:104D400000040048000800480008005808B5124850
:104D5000124A134BC0E9002300230122C0E90232AA
:104D6000C0E90433C0E90633036202F081FD08B1F3
:104D700000F0DEF80848002102F02CFF08B100F036
:104D8000D7F80548002102F04BFF18B1BDE80840F4
:104D900000F0CEB808BD00BF640100200054004000
:104DA000885D801010B596B004461422002103A837
:104DB00008F0DAF83822002108A808F0D5F82268AF
:104DC000184B9A422BD14023089308A84FF4403344
:104DD0000D9303F081FC08B100F0AAF84FF0B04445
:104DE000C022E36C104843F00203E364E36C03F079
:104DF00002030293029B1223CDE903230023CDE992
:104E0000053303A90423079302F07AFAA36D43F450
:104E10000013A365A36D03F400130193019B16B067
:104E200010BD00BF005400400004004808B50268EF
:104E3000094B9A420FD14FF0B0420848936D23F4CA
:104E400000139365402102F007FBBDE808400348CA
:104E5000802102F001BB08BD00540040000400485E
:104E600000B59BB04822002108A808F07DF8182260
:104E7000002102A808F078F802F0F8FE4FF0B042E6
:104E80008121D2F8903023F01803C2F89030D2F884
:104E9000003423F4C06343F40073C2F80034D2F842
:104EA000003403F4C0630193019B262308934FF45D
:104EB0008073CDE90B130123109340230D93B0228F
:104EC000002308A8CDE91132139303F047F808B185
:104ED00072B6FEE74F23CDE90230CDE90400CDE9FB
:104EE0000600022102A803F0D3FA08B172B6FEE769
:104EF0001BB05DF804FB000008B50B4B0B4A9A6031
:104F000062B601F00FFDFFF7ABFFFFF7B5FE00F053
:104F1000DEFDFEF7E5FEFFF719FF0020FFF7A6FD17
:104F200000F0DCFDFCE700BF00ED00E00030000811
:104F300072B6FEE770B5FF23074D084E01441C46CC
:104F4000814202D143EA042070BD10F8012B5A407F
:104F5000AB5C6340B45CF3E771DC000871DB000814
:104F600010B50446FEF70CF9214682B2BDE81040A8
:104F70000148C82304F0FCBF680B002030B521F0C5
:104F800003010E4D034601444FF0FF308B4200D128
:104F900030BD9A785C78120442EA04221C782243DD
:104FA000DC7842EA04625040202200284FEA4000A8
:104FB000B8BF6840013AF8D10433E7E7B71DC10430
:104FC0002DE9F04F3D2195B007F0D6FF044628B9F2
:104FD000784815B0BDE8F04FFFF7C2BF00210A22A4
:104FE000013007F069FF2C210546204607F0C4FF79
:104FF0000028EDD010220021013007F05DFF6B1E6C
:10500000B3F5604F009002D215F0030701D06A4853
:10501000DFE76A4E6A4801234FF460413370FFF7BF
:1050200005FE30B16748FFF79BFF377015B0BDE84C
:10503000F08F6548DFF894B1FFF792FFBA463C461F
:10504000B846A5EB0809B9F1F40F28BF4FF0F409F1
:105050005F484FF47A631FFA89F20BEB040104F006
:10506000D9FF019020B15B48FFF77AFF002312E0DF
:105070004C44B4F5006FC84419D30AF100604FF4F2
:105080000062594600F58830FFF7F6FC28B1524817
:10509000FFF766FF019B3370C8E75049A4F5006431
:1050A0002246A1F500600AF5006A07F043FF4C4A6A
:1050B0004346302108A807F009FF08A8FFF750FF72
:1050C0004545BED8B4B1FF2314F007080ED10AF14C
:1050D00000603E49224600F58830FFF7CDFC48B11C
:1050E0003D48FFF73DFF86F800809FE70BF804304E
:1050F0000134E9E73022002108A807F035FFDFF886
:10510000D08000246423012204A9404604F082FFD9
:1051100090B99DF8102004F15001631C0DEB0104BF
:105120000A2A04F8302C0DD12E4908A807F031FFC7
:10513000044650B12C4897E70137322FF4D8234664
:105140001C46DFE72F2BFBD1EEE71D482946FFF772
:1051500015FF009B984204D02448FFF701FF3470EC
:1051600064E7234B2348CDE90435009B06934FF4B5
:10517000006101230793FFF759FD08B11E4873E74B
:1051800010221C480DEB0201FFF776FC04460028B4
:10519000F4D11A48FFF7E4FE194A0394039B9342A3
:1051A00002D901F06FFD41E700BF039B0133039378
:1051B000F4E700BF71DD000884DD0008AC0A0020C0
:1051C0000010010895DD0008A7DD0008B8010020E7
:1051D000680B0020B4DD0008C8DD0008B809002015
:1051E000DADD0008E8DD0008F4DD000803DE000871
:1051F0003143414D00F0010813DE000824DE0008B1
:10520000BF27090000B58DB02C22002101A807F0AE
:10521000ABFE1748174B03601F2383604FF080429B
:105220000023C0E90433C0E9072383614FF480738E
:10523000436203F0D3FB08B1FFF77AFE0C4803F09A
:10524000F9FC08B1FFF774FE4FF0005300220793FA
:10525000074808924FF4807301A9029206920B93BB
:1052600003F01CFC08B1FFF763FE0DB05DF804FB12
:10527000B00A00200028004010B5044690B0382243
:10528000002102A807F070FE2268194B9A422CD127
:105290004FF48033029302A84FF480730F9303F00E
:1052A0001BFA08B1FFF744FE4FF0B0430220D3F8D9
:1052B000902042F40042C3F890209A6D42F480623C
:1052C0009A659B6D002203F4806311460193019B54
:1052D00001F086FC022001F0B5FC00222A201146D4
:1052E00001F07EFC2A2001F0ADFC10B010BD00BF23
:1052F00000280040014B002019707047E80A002088
:10530000F0B587B0164F8DF80F101C460A23009396
:105310001546397801230DF10F02064602F016FBFF
:10532000D0B99DF80F30E02B18D0F62B14BF0A200F
:10533000052000F027F90A2300933978062304AAF0
:10534000304602F0AFFB38B9BDF810305BBA2B80A5
:10535000BDF813305BBA238007B0F0BD0220E8E748
:10536000E80A002008B5FEF71DF80549FEF76EF8BB
:105370000449FEF71FF90449FDF75EFF08BD00BFB1
:1053800000002F4300FF7F470000344208B5FEF7BE
:1053900009F80549FEF75AF80449FEF70BF90449E4
:1053A000FDF74AFF08BD00BF0000FA4200FF7F473B
:1053B0000000C04073B516461D4601AA0DF1060354
:1053C000FFF79EFF044648B9BDF80400FFF7CAFF87
:1053D0003060BDF80600FFF7D9FF2860204602B014
:1053E00070BD704708B501F0BFFA044B0120C3F847
:1053F0008800BDE8084002F091BC00BF00040058DE
:1054000001F0B9BA08B501F0B6FABDE8084000F0FD
:10541000F5BA08B501F0A8FABDE80840012100205E
:1054200002F02CBC70477047FEE7FEE7FEE7FEE7A0
:10543000FEE770477047704701F08ABA014803F0F1
:105440001FBC00BFB00A0020022002F07FB800009D
:10545000014801F001BE00BF080B0020014803F025
:10546000D3BF00BF680B0020014803F03DBA00BF66
:10547000B00A0020014803F02CBE00BFEC0A002057
:10548000054808B50823036003F040FC18B1BDE8E7
:105490000840FFF74DBD08BDEC0A00204FF0B043B7
:1054A00007B55A6E42F001025A665B6E002203F0A5
:1054B0000103019311463220019B01F091FB322040
:1054C00003B05DF804EB01F0BDBB00000CB407B500
:1054D000054A05AB1021019307F0D6FA03B05DF839
:1054E00004EB02B0704700BF48DE000830B585B05D
:1054F000044602A80D4607F055F9BDF90C30064ADE
:1055000000931021029B2046FFF7E0FF2046FDF7A5
:1055100037FE288005B030BD48DE00084FF0B042AD
:1055200010B5936823F40043936007F061F90A4BC8
:1055300001241C7000F02CF806F0ECFE074806F081
:1055400003FF022006F006FF06F0FEFF214620467C
:10555000BDE8104007F018B8F80A0020ED54000824
:1055600007F028B80121022006F0F8BF0021022030
:1055700006F0F4BF024B187808B100F069B8704724
:10558000F80A002082B00190019802B000F0FCB847
:1055900008B501F0F7F901F0FDF9BDE8084001F0A8
:1055A00001BA00000B4A116810B5034609B90A494F
:1055B0001160106809490A4C0344091B8B4206D943
:1055C00007F0FEFC0C2303604FF0FF3010BD1360AA
:1055D000FCE700BFFC0A00208015002000400020EE
:1055E00000080000014B1868704700BF000B002046
:1055F0000320704708B501464FF47A7200238002F9
:10560000890DFEF745F908BD4FF47A73A0FB03033B
:10561000800A40EA83507047034B98689A6890422A
:10562000FBD1C043704700BF0028004008B5FFF71A
:10563000F3FF014B186008BD000B002008B5FFF711
:10564000EBFF024B1B68C01A08BD00BF000B002017
:10565000024B187808B1FFF7DFBF7047040B00203A
:1056600010B5074B074C0122DA654FF480712046D4
:1056700003F000F94FF0FF332363002010BD00BF9B
:1056800000280040B00A002002460021014803F033
:1056900008BB00BFB00A002002460121014803F008
:1056A00000BB00BFB00A002010B58CB02C22002136
:1056B000044601A807F058FCFFF7D2FF0C4B0D4839
:1056C0001B681C440023089306934FF00053E443E7
:1056D000079301224FF4807301A902940B9303F006
:1056E000DDF908B1FFF724FC00200CB010BD00BFAD
:1056F000000B0020B00A002038B50546FFF78CFFEC
:1057000002210446074803F0D3FAC4F309024FF418
:105710007A71A2FB0121920AA30A2A8043EA8050EF
:1057200038BD00BFB00A00200148002103F0C0BA14
:10573000B00A00200148012103F0BABAB00A0020E3
:10574000F8B50F4D2E78CEB90E4C4FF0FF372763CA
:10575000FFF758FDFFF784FF4FF48071204603F0F8
:1057600089F82046276303F047FA32462046022193
:1057700003F097FAFFF75AFF01232B700020F8BDC2
:10578000040B0020B00A0020014610B54FF47A72D5
:1057900000238002890DFEF77BF80146FFF73CFFEE
:1057A0000446FFF739FF031B8B4200D310BD00BF37
:1057B000F7E707F025B9000010B5064C0221204696
:1057C00003F076FA0221421C2046BDE8104003F0A7
:1057D00068BA00BFB00A00201648174A08B54FF44F
:1057E0006133C0E9002300230C22C0E90233C0E981
:1057F0000523C0E90733C0E90933036104F0A8FCBD
:1058000008B1FFF795FB0B48002104F018FE08B122
:10581000FFF78EFB0748002104F031FE08B1FFF7C7
:1058200087FB044804F0EBFD18B1BDE80840FFF722
:105830007FBB08BD680B00200044004070B596B0E7
:1058400006461422002103A807F08EFB382200210F
:1058500008A807F089FB3268284B9A424BD10223F3
:10586000089308A84FF440230A9302F035FF08B1CB
:10587000FFF75EFB4FF0B04300259A6D204C42F4D9
:1058800000329A659A6D02F400320292029ADA6C42
:1058900042F00102DA64DB6C03F001030193019B27
:1058A0000C220223CDE903230323CDE9055303A9E9
:1058B00007234FF09040079301F022FD1149256224
:1058C0001423C4E900131023C4E9023520468023C1
:1058D000C4E90435C4E9065501F048FA08B1FFF7F8
:1058E00027FB2520F46700220221A66201F078F947
:1058F000252001F0A7F916B070BD00BF004400409C
:10590000080B00205800024002680C4B9A4210B568
:10591000044612D14FF0B0420C21936D23F40033B2
:1059200093654FF0904001F097FDE06F01F090FA21
:10593000BDE81040252001F093B910BD004400409F
:1059400008B50A460146024803F0C2FC002008BD23
:10595000680B002013B5114B114C18604FF4001365
:10596000009302AB13E90600204604F0ECFC236828
:10597000DA69D103FCD4DA695202FCD59A68084886
:1059800042F480029A6004F024FD06490448012292
:1059900004F092FC002002B010BD00BFFC0B002000
:1059A000680B0020040C002008B5074B1860FEF7B8
:1059B000DFFFFFF711FF054AD2F8803043F00063A4
:1059C000C2F88030002008BD000C002000080058FC
:1059D00008B54FF0B04308489A6B42F400329A631E
:1059E0009A6B22F400329A63FFF78EFF0F2001F0CA
:1059F00037F9002008BD00BF680B002008B5074834
:105A000004F0A6FB08B1FFF793FA054801F0AEF9E0
:105A100018B1BDE80840FFF78BBA08BD680B00203D
:105A2000080B00200268044B9A4203D1034B00206C
:105A30001B681847704700BF00440040000C00205E
:105A400002680B4B9A4210B504460FD1094B1B68F4
:105A50002BB1D0F8902012B9074801219847204671
:105A60000549BDE81040012204F026BC10BD00BF6E
:105A700000440040FC0B0020040C00200D4885462B
:105A800000F029FF0C480D490D4A002302E0D458CC
:105A9000C4500433C4188C42F9D30A4A0A4C002378
:105AA00001E013600432A242FBD307F08FFAFFF744
:105AB00023FAFEE700400020000000207C000020C8
:105AC000B8E600087C0000207C150020FEE708B541
:105AD000FFF724FDBDE8084000F004BD4FF0FF30A3
:105AE00006F0CCBD0E4B18684FF47A73584331283A
:105AF00010B513D90B490B6883EA433383EA534348
:105B000083EA43130B603222B0FBF2F25100013101
:105B1000801AB3FBF1F401FB1433184410BD00BF2D
:105B2000040000203C0D00202DE9F041374B0446D5
:105B300018889CB00D460022AA4234D30022344B70
:105B400000951146012006F04FFC324F6619B44211
:105B500046D100221146304BDFF8B880012006F014
:105B600043FC00222D4B00951146012006F03CFC21
:105B700003AE00243746AC423CD100221146264BEE
:105B8000012006F031FC0022254B00931146254BE5
:105B9000012006F029FC244B21469B6A3846984791
:105BA0001CB0BDE8F081511CA942B8BFA618A35C87
:105BB000BCBF767843EA0623A94202F17006B8BF5B
:105BC00070316E4483EA0003B8BF694406F8643C50
:105BD00002F10202BCBF1B0A01F8643CD2B2ABE77F
:105BE00014F8013B009300223B461146012006F0C9
:105BF000FBFBACE716F8013B00930022434611463D
:105C0000012006F0F1FB0134B5E700BF12000020CF
:105C1000A4DE0008B3DE000822DE0008B9DE0008BA
:105C2000C8DE000800DB0008D4E30008F0B585B04A
:105C300001224FF400414FF090400025029503955A
:105C400001F07EFCFFF782F888212348234EFFF7FE
:105C500051FB0A20FFF796FC03AB02AAFD211E4868
:105C6000FFF7A8FB00224FF4004104464FF090409C
:105C700001F066FC184801F050FE1CBB039F29464A
:105C80003846FDF781FDA0B1039515490298FDF74F
:105C9000DDFBFDF7B7FD134B114918800398FDF7A5
:105CA000D5FBFDF7D5FD104B18800023337005B0F0
:105CB000F0BD0B4C38462146FDF784FD0028E4D0AA
:105CC0000394E2E70123002233701146074B00944E
:105CD000022006F089FBEAE76401002000000020B2
:105CE0000000C8423A0D0020380D0020DEDE00081A
:105CF0000021012006F08ABC024B0120002118700F
:105D000006F084BC020D002008B50122054B0021DD
:105D1000104606F069FBBDE808400021012006F0AE
:105D200075BC00BFFBDE0008014806F017BE00BFCF
:105D3000440D002013B50D4B1B7803F0FF0443B155
:105D40000B4B5B6B01934FF4FA6002B0BDE810405F
:105D5000184701222146074B104606F045FB214615
:105D6000012002B0BDE8104006F050BCFB0C002042
:105D7000D4E3000809DF000870B5174B1A7802F069
:105D8000FF0412B3154A164900241C701378CD6A1B
:105D9000012B0DD91378013BDBB21370114B012697
:105DA0001E70A847BDE870400021012006F02EBCFF
:105DB0000D4B14701A78002AF3D01C7022460B4B3E
:105DC0002146022006F010FBEBE70122084B21469A
:105DD000104606F009FBE5E7FB0C0020F90C00205B
:105DE000D4E30008F80C0020FE0C002015DF0008AA
:105DF0001EDF000830B5164B1B7885B02BB1154956
:105E000005B0BDE8304007F007B9134BB3F90050B7
:105E1000124B85EAE5721C886421A2EBE572B4FBA3
:105E2000F1F392B201FB1344CDE90234B2FBF1F37A
:105E300001FB1322CDE90032094A0A4B5A2133EA09
:105E4000250328BF1346084A07F040F805B030BDC7
:105E5000000000202EDF00083A0D0020380D002041
:105E60002CDF000823DE000865DF0008F0B55E4B7C
:105E70001A789BB0B2B100245C481C7006F020FD7B
:105E8000FFF730FE0146594806F0A2FD574806F0DC
:105E900065FD574B1B6800932246564B2146022056
:105EA00006F0A2FA544B1A7802F0FF00AAB10022C1
:105EB0001A70524B1B78C3F1030311460093022062
:105EC0004F4B06F091FAFEF737FC4E4B4E481978CF
:105ED0001BB0BDE8F040FFF727BE4C4A4C4C117890
:105EE00001F0FF03002964D010704A4A01231370A7
:105EF00023702378002B5AD02378474E454F013B1F
:105F0000DBB223703378002B69D03B78002B14BFB1
:105F100001230323394A03AC1370FFF787FE2046A1
:105F2000FFF768FF00223D4B00941146012006F068
:105F30005BFA06F081FC4FF47A73B0FBF3F5384B53
:105F4000314C1B7823700A236370FEF759FC002341
:105F5000E3702B0C23712B0A63713B78A070A57141
:105F6000002B3ED13378003B18BF0123DB012D4AC3
:105F7000254812781343E3712B4BB3F9002093F9B2
:105F800001302372294B62721B88E3721A0A0C21BA
:105F9000A272FEF7CFFF1B4B2073000A60730E2422
:105FA0001C70FEF7C9FB18482146FFF7BDFD1BB06A
:105FB000F0BD1F4A117800299BD01370154A0B4879
:105FC00013700123237006F07BFCFFF78BFD014665
:105FD000064806F0FDFC054806F0C0FC89E70123F1
:105FE00098E78023C3E700BF000D0020040D0020C8
:105FF00004000020ABDF0008F80C0020F90C0020A2
:10600000CBDF0008F70C0020050C0020FF0C00205F
:10601000010D0020FE0C0020FA0C0020D8DF000843
:1060200010000020000000203A0D0020380D002054
:10603000020D00202DE9F0435D4D98462B7889B084
:1060400006460C46174603F0FF09002B5AD00729D5
:106050001BD1584B06A91C8801220846771E072A27
:10606000BB5C1CBF16F802C043EA0C236340072A3E
:106070000B7010D10521BDF81D40FEF75BFF4E4BA4
:106080009DF818201B789A420AD04C4B4FF4FA60C6
:106090005B6B984733E01B0A4B7002320231DEE73C
:1060A0009DF81930AC2BF0D18442EED1444B002244
:1060B0001A70444B1978C9B143481A700388BDF867
:1060C0001A1001339BB2C9BA03809DF91C000491D8
:1060D0003E490590097803910A200121CDE901107C
:1060E000009311463A4B022006F07EF9334B002410
:1060F000DB6A2C7098472146012006F087FA09B028
:10610000BDE8F0830122334B4946104606F06CF996
:106110000122314B49461046CDE9007806F064F97A
:106120002E4B2F4883F80080DE22494606F01CFFE4
:106130002C4BDE2C1C8004D829482246314606F020
:1061400073FF294B264D1F700122284B009400211C
:10615000104606F049F90122254B264E264F002114
:10616000104606F041F9002415F8013B0093002287
:1061700033461146012006F037F904F00F030F2BC8
:1061800005D100223B461146012006F02DF90134CD
:10619000402CE9D100221146174B012006F024F9CA
:1061A0000021012009B0BDE8F04306F02FBA00BF7E
:1061B000FB0C00201200002010000020D4E3000897
:1061C000F90C0020FE0C0020FC0C00200800002030
:1061D000DBDF0008FADF000805E000085C0D0020A6
:1061E0003E0E00205E0D00205D0D002027E000081F
:1061F0003BE000084EE0000838E000087FB5FEF7FD
:10620000EDFA0646FEF7FCFA05463046FDF7FAFAC7
:106210000446FDF7C7F801463046FDF70DF80E4974
:10622000FDF714F94FF07C51FDF708F8FDF7EAFA95
:1062300000236328C4BF18460134642DA8BF642519
:106240000022CDE9010503930094044B114601207F
:1062500006F0CAF804B070BD0000C84251E0000862
:1062600037B5174B174C1B78FBB92378EBB9164B96
:106270001868FDF793F8FEF767FAFFF7BFFF134BB7
:1062800021781B78124D51EA030410D0114B0122E2
:106290004FF080401A70FEF739FB6B6B01934FF49F
:1062A000FA6003B0BDE8304018470020E3E7EB6A2E
:1062B00098472146012003B0BDE8304006F0A6B95A
:1062C000010D0020FE0C002004000020FA0C00202C
:1062D000D4E30008FB0C002008B5084B1B7863B121
:1062E00002280AD1FDF7AEFDBDE8084000224FF4B8
:1062F00080714FF0904001F023B908BD1C0D0020C3
:1063000010B59AB0FFF792FC03AC0120FEF71CFB1E
:106310002046FFF76FFD0022034B00941146012039
:1063200006F062F81AB010BDD8DF000800B5114BB6
:10633000D3F88025D3F8843589B0D1B20791C2F360
:1063400007210691C2F30741120E0492DAB20392BA
:10635000C3F307220292C3F3074201921B0E0022ED
:10636000059100931146044B022006F03DF809B058
:106370005DF804FB0070FF1F74E00008042807D8D4
:10638000072905D8034B01EBC00153F821007047E2
:1063900000207047D8E10008F7B56020FDF732FC17
:1063A000C0B2431E772B454F6ED838701820FDF7CA
:1063B00029FCC0B20528424C6CD820702378642098
:1063C000C3F10C032370FDF71DFCC6B20820FDF7D6
:1063D00019FC072EC5B204D900216420FDF732FC58
:1063E00000263C780F23013C94FBF3F4E4B2A64270
:1063F00003D021466420FDF725FC052D10D903218B
:106400000820FDF71FFC41210C20FDF71BFC00219B
:106410001420FDF717FC00211C20FDF713FC0325B9
:1064200021462846FFF7AAFF264B18601C20FDF7DF
:10643000E9FB254A254B012808BF1346244A14BF0F
:106440000021012111700022114600930220214BEE
:1064500005F0CAFF0420FDF7E5FB1F4B421F9A42DF
:106460001E4B1DD818606C20FDF7DCFB80B2431E6C
:106470009BB24FF6FD729342194B18D8188003B0A7
:10648000BDE8F040FEF7E0B9012160203970FDF76A
:10649000D9FB8BE7052118202170FDF7D3FB8DE791
:1064A0004FF4967104201960FDF7E4FBDBE740F23E
:1064B00057416C201980FDF7DDFBE0E7100000205C
:1064C000080000200C000020ABE00008C1E000083C
:1064D000FA0C0020C5E000087B51010004000020F8
:1064E000120000202DE9F04F8DB0FEF7C5FB6020B3
:1064F000FDF788FB00228B4B00901146022005F02F
:1065000073FF01224FF480714FF0904001F018F8B2
:106510004FF44870FFF736F800224FF480714FF0C7
:10652000904001F00DF84FF49670FFF72BF8012220
:106530004FF480714FF0904001F002F84FF4487032
:10654000FFF720F800224FF480714FF0904000F0E8
:10655000F7FF00220024012511464FF0050B724B76
:10656000724EDFF8CC91734F022005F03DFF2246BA
:106570002146CDE901B4704B0095022005F034FFAF
:10658000032322462146CDE9005302956B4B02209E
:1065900005F02AFFFFF7CAFE2246C821684B009487
:1065A000684806F02FF9674806F0D8F96648674B47
:1065B0000360674B8360674B4360674BC360674B07
:1065C000036133689847736998469847800DC9F806
:1065D0000000FFF7E1FEF36838689847224621463D
:1065E0005F4B022005F000FF224621465D4B022052
:1065F00005F0FAFE3B680093224621465A4B5B4F5A
:10660000022005F0F1FE7D23009322462146584BDF
:10661000022005F0E9FE3B78009322462146554BC7
:10662000022005F0E1FE544B1B88009322462146D0
:10663000524B022005F0D8FE514B1B6800932246B6
:106640002146504B022005F0CFFE22462146444B06
:10665000022005F0C9FE4FF0080A47F23053CDE999
:106660000743CDE90544CDE90345CDE9015A3B781F
:106670000093F3690B93DDF82CC02346224628468D
:106680001621E047CDE90845CDE90644CDE90445AA
:10669000CDE902B4CDE9004AB3690B933A780B9F78
:1066A0002B4621462846B847736D2846DE21984779
:1066B0002146DE22344806F057FCD9F8003000931A
:1066C00022462146314B284605F08EFEF36A984754
:1066D000214628462E4A06F055F82A464FF4FA611C
:1066E0002C4B00942C4806F08DF82B4806F036F918
:1066F000C0472A4B002808BF4FF0A5301860FFF7AD
:10670000F1F9274B009401462A46264806F07AF80C
:10671000244806F023F9244B1D70244B1D700DB046
:10672000BDE8F08FD7E00008E3E00008D4E30008FC
:10673000400D00200C000020F5E0000816E10008E4
:10674000295D0008440D00201C0F00206162000834
:1067500035600008095D0008795D0008355D0008B6
:1067600037E1000849E1000857E10008080000206F
:106770006CE1000882E100081200002096E10008A8
:1067800004000020A8E10008600D0020BEE1000820
:106790006D5E0008F15C0008200D00203C0D00201B
:1067A000F95C0008040D0020020D00201C0D0020E3
:1067B00000F00AB800F04AB800F082B800F082B8E1
:1067C00000F082B800F082B82DE9F04186B00024D4
:1067D0004FF0B0430594DA6C1B4D42F00402DA64CA
:1067E000DB6C039403F004030093009B1027012348
:1067F000CDE9017301A90323284604934FF40058FF
:1068000000F07EFD01A928468026CDF8048000F026
:1068100077FD01A94FF09040019600F071FD2246EE
:106820004146284600F08CFE22463946284600F0B4
:1068300087FE224631464FF0904000F081FE204610
:1068400006B0BDE8F08100BF0008004808B5032885
:1068500014D8DFE800F002151D2A002280214FF035
:10686000904000F06DFE00221448102100F068FEF8
:10687000002212484FF4005100F062FE002008BDD3
:10688000012280214FF0904000F05AFE0122EBE7F8
:10689000012280214FF0904000F052FE0122074873
:1068A000102100F04DFE0122E3E7012280214FF08C
:1068B000904000F045FE0022F1E700BF00080048CC
:1068C000022070470120704701207047002814BF44
:1068D00016200F207047704738B5104C23780546B6
:1068E0000BB9012038BD01F029FB22784FF47A73EF
:1068F000B3FBF2F3B0FBF3F000F0D6F90446002846
:10690000EFD10F2DEDD8024629464FF0FF3000F0B1
:1069100067F9034B20461D60E4E700BF1800002024
:106920001C00002010B5032000F048F901F006FB20
:10693000064B18600F20FFF7CFFF044618B9FEF78B
:1069400072FD204610BD0124FBE700BF14000020AB
:10695000034A044B11681B780B441360704700BF57
:10696000380F0020180000204FF0E022136923F0B8
:106970000203136170474FF0E022136943F00203F2
:1069800013617047024A536823F001035360704754
:10699000002004E0024A536823F00203536070476A
:1069A000002004E0024A536823F004035360704758
:1069B000002004E08068C0F380007047F7B5002332
:1069C00001930446002800F0E980856D25B9FDF7A4
:1069D000AFF9E56584F8545023689A68D00040F117
:1069E000A1809A68D10000F1B480A26D42F010023B
:1069F000A265E26D42F00102E26501251846FFF74B
:106A0000D9FFA26D02F01002024340F0C980A26DCE
:106A1000206922F4817242F00202A2659A68D207CC
:106A20005DD4226BA67E94F82CC0003A18BF0122D8
:106A30001703D4E902120A43217E42EA8132617EC1
:106A400042EAC13242EA4632002842EA4C02B4BF6E
:106A500020F000414FF400113A430A4394F820100B
:106A6000012903D1002E76D142F48032616A21B12E
:106A7000A66A01F4E07131430A43D968E66C21F457
:106A8000FE3121F4FF711143D96094F83C20616814
:106A9000012A01F0404C4CEA060609D1D4E910273E
:106AA0003A433243A66C324342EA0C0242F00106FA
:106AB0001F693E4A3A4032431A6121F00042B2F166
:106AC000804F0CD0B1F1004F09D0394ED6F80827CD
:106AD00001F4701122F470120A43C6F808275A69AB
:106AE000666BA16B22F0070232435A615A6922F0A9
:106AF000700242EA01125A61002835D19A6A62F0A6
:106B00000F029A625B6903F007039E423CD10023A7
:106B1000E365A36D23F0030343F00103A365284657
:106B200003B0F0BD9A68234922F0104222F0170208
:106B300042F080529A60204A1268B2FBF1F20132B0
:106B400052000192019A002A3FF44BAF019A013A98
:106B5000F7E7002552E7A16D41F02001A165E16D45
:106B600041F00101E16581E7B0F5001FCAD19A6AE1
:106B7000E269013A92006FF00F0102F01C0201FA83
:106B800002F2216E0A43BCE7A36D23F0120343F027
:106B90001003A365E36D43F00103E3650125BEE740
:106BA000A36D43F01003A365F8E700BF02FCFF1FCD
:106BB00000200140400D0300140000200749CA686E
:106BC00022F4E0620302120403F4E063120C1343A4
:106BD00043F0BF6343F40033CB60704700ED00E047
:106BE000164B30B5DC68C4F30224C4F10703251D3D
:106BF000042B28BF0423062D4FF0FF358CBF033C28
:106C0000002405FA03F321EA0303A54022EA050262
:106C1000A340002843EA0203ACBF00F16040084AE9
:106C20004FEA0313B8BF00F00F00DBB2AABF00F5B4
:106C30006140135480F8003330BD00BF00ED00E028
:106C400014ED00E0002807DB044A4109012300F0AD
:106C50001F00834042F82130704700BF00E100E090
:106C600000280CDB4309064900F01F0020330122F5
:106C7000824041F82320BFF34F8FBFF36F8F7047DF
:106C800000E100E0BFF34F8F0549064BCA6802F4EC
:106C9000E0621343CB60BFF34F8F00BFFDE700BF3F
:106CA00000ED00E00400FA050138B0F1807F0BD25E
:106CB0004FF0E023054A5861F02182F823100020AC
:106CC000072298611A6170470120704700ED00E0CB
:106CD000002808DB4309044900F01F00012260334B
:106CE000824041F82320704700E100E070B5D0E910
:106CF00013456560446D14B1D0E916456560D0E96F
:106D0000105404F01C060124B4406C6004686360F5
:106D10008368102B0BBFA260A160E160E26070BDD0
:106D20000268416CD3B210B5083B1424B3FBF4F3F2
:106D30000B4CA24288BF0B4A21F0030199BF01F11D
:106D4000804202F50232521807338264064AC26456
:106D500003F01F03012202FA03F3036510BD00BF15
:106D6000070402401C0802408008024038B5002891
:106D70005CD002682E4B9A424FF014014AD82D4B3A
:106D80001344B3FBF1F32C499B00C0E91013022319
:106D900080F825301368056923F4FF4323F070035E
:106DA0001360D0E9024323432B43456911682B4309
:106DB00085692B43C5692B43056A2B430B4313603D
:106DC000FFF7AEFFB4F5804F04BF00234360436874
:106DD000816C03F07F020A60D0E91314013B032B9E
:106DE0004C601ED8154B1649816513449B00012148
:106DF000013A01FA02F200214365C2651960114BA4
:106E00005A6400230122C36380F8243080F82520CF
:106E1000184638BD0C4B1344B3FBF1F30B499B00F0
:106E2000B3E70023C0E91533C365EAE70120F0E7C3
:106E300007040240F8FFFDBF000002403F8200103F
:106E40004009024000090240F8FBFDBF0004024077
:106E500038B5002841D00268136823F0010313609D
:106E60001F4B9A424FF0140130D81E4B1344B3FB12
:106E7000F1F31D499B00C0E91013012403F01C032A
:106E800004FA03F3002515604B60FFF749FF836C9C
:106E900041681D60D0E913325A604A1E032A06D8A1
:106EA000124B0B449B0094401D60114B5C6400230B
:106EB000C363C0E91533C0E90B33C0E90D33C365C3
:106EC00080F8253080F82430184638BD094B13442B
:106ED000B3FBF1F308499B00CDE70120F5E700BFC4
:106EE00007040240F8FFFDBF000002403F8200108F
:106EF00000090240F8FBFDBF0004024070B590F8A5
:106F00002450012D04463BD090F825600125AE4267
:106F100080F824504FF000062CD1022580F825502F
:106F20000568C6632E6826F001062E60FFF7DEFEB8
:106F3000036BBBB12B6843F00E032B60A36C1A6884
:106F4000D20342BF1A6842F480721A60636D1BB1AB
:106F50001A6842F480721A602B6843F001032B60B8
:106F6000002070BD2B6823F004032B602B6843F0D6
:106F70000A03E2E78023C36380F824602846F0E731
:106F80000220EEE7034640B190F82520022A06D001
:106F90000422C263002280F8242001207047026886
:106FA000806C116821F00E011160016821F480717C
:106FB0000160116821F001011160D3E9100202F0B3
:106FC0001C0101228A404260D3E9132151605A6DAD
:106FD00032B1116821F480711160D3E9162151603A
:106FE0000122002083F8252083F82400704708B58B
:106FF00090F82530022B03D00423C363012008BD81
:1070000003681A6822F00E021A601A6822F0010260
:107010001A60826C136823F480731360D0E9101334
:1070200003F01C02012393404B60D0E913325A60F5
:10703000436D33B11A6822F480721A60D0E91632B7
:107040005A60012380F82530002380F82430836BB8
:1070500003B198470020D2E770B4426C046C036817
:1070600026681D6802F01C020421914031420FD0B5
:1070700015F0040F0CD01A6892065EBF1A6822F051
:1070800004021A60036B6160002B33D070BC184798
:1070900002219140314217D015F0020F14D01A6826
:1070A000940606D41A6822F00A021A60012280F8B7
:1070B0002520114A93428CBF104B114B596000237D
:1070C00080F82430C36ADFE708219140314211D0B3
:1070D00029070FD5196821F00E011960012303FA61
:1070E00002F26260C36380F82530002380F8243008
:1070F000436BC9E770BC7047800002400004024047
:10710000000002400A4A536943F4802330B55361BA
:10711000EFF3108472B60023CD58C5500433B3F595
:10712000807FF9D11369DB03FCD484F3108830BD70
:1071300000400058064B5A69002ABFBF054A9A60B2
:1071400002F188329A60BABF5869C00F00207047B8
:107150000040005823016745044B5A6942F0004241
:107160005A615869C043C00F704700BF00400058C3
:10717000014B5868704700BF3C0F002070B50546B2
:10718000FEF7F8F9124E04463369D90313D4336974
:10719000DA0744BF012232614CF2FA32134011D1B6
:1071A0000B4E306910F480200BD0FEF7E3F9001B82
:1071B000A842F6D304E0FEF7DDF9001BA842E3D3B2
:1071C000032070BD024A1361024A01205360F8E7B0
:1071D000004000583C0F00202DE9F041184D984622
:1071E0002B78012B06460C46174626D001232B7020
:1071F0004FF47A7000236B60FFF7C0FFA0B9012E37
:1072000016D1104A536943F0010353612760BFF35D
:107210006F8FC4F804804FF47A70FFF7AFFF094A0C
:10722000536923EA0603536100232B70BDE8F08104
:1072300039462046FFF766FFEDE70220F6E700BF7C
:107240003C0F002000400058054A536923F47E7328
:1072500043EAC00040F4803040F0020050617047C3
:10726000004000582DE9F041234F3B78012B0546A3
:1072700088463FD001233B704FF47A7000237B6037
:10728000FFF77CFF044688B92B68042B13D11B4AF7
:10729000536943F4803343F0040353614FF47A702D
:1072A000FFF76CFF0446154B1A681B6800233B7000
:1072B0002046BDE8F0814FF0FF33C8F800306E681B
:1072C000D5E901321344B3420AD93046FFF7BCFF77
:1072D0004FF47A70FFF752FF50B1C8F800600446CF
:1072E000064A536923F47E7323F002035361DAE7FD
:1072F0000136E5E70224DBE73C0F002000400058A0
:107300002DE9F04F524C00234FF00F090A6832FA72
:1073100003F501D1BDE8F08F012505FA03F818EA5D
:10732000020200F08E804E68032706F003054FEA44
:10733000430E07FA0EFC6F1E012F6FEA0C0C32D8B9
:10734000876807EA0C0ACF6807FA0EF747EA0A07C8
:107350008760476827EA0808C6F300179F4047EA96
:1073600008074760C76807EA0C088F6807FA0EF736
:1073700047EA0807022DC76017D14FEAD30800EB90
:10738000880803F0070AD8F820704FEA8A0A09FA39
:107390000AFB27EA0B0B0F6907FA0AF747EA0B0704
:1073A000C8F8207001E0032DDCD1076805FA0EF55E
:1073B00007EA0C073D4316F4403F056041D023F037
:1073C000030707F1804707F5803703F0030CBD681A
:1073D0004FEA8C0C4FF0070E0EFA0CFEB0F1904FF6
:1073E00025EA0E0E2FD01B4DA8422ED005F5806544
:1073F000A84214BF0725022505FA0CF545EA0E053B
:10740000BD602568D74316F4801F0CBF3D4015436F
:107410002560656816F4001F0CBF3D40154365608C
:10742000D4F8805016F4803F0CBF3D401543C4F89B
:107430008050D4F88450B60354BF3D401543C4F87F
:107440008450013362E70025D6E70125D4E700BF69
:107450000008005800040048374A2DE9F04F002387
:107460004FF0010A4FF0070B4FF00F0931FA03F408
:1074700001D1BDE8F08F0AFA03FC1CEA010654D0E2
:1074800023F0030404F1804404F5803403F003077F
:10749000A568BF000BFA07F8B0F1904F08EA050E97
:1074A00045D0264DA84244D005F58065A8420CBFC2
:1074B00002250725BD40754517D1D2F8805025EA31
:1074C0000605C2F88050D2F8845025EA0605C2F8B5
:1074D0008450156825EA06051560556825EA0605F5
:1074E0005560A56825EA0805A560056803265C00C7
:1074F00006FA04F423FA06F6254300EB8606056037
:1075000003F00705376AAD0009FA05F527EA050714
:107510003762856825EA04058560456825EA0C051B
:107520004560C56825EA0404C46001339EE7002570
:10753000C0E70125BEE700BF00080058000400486E
:107540000AB181617047816270470000044AD168C6
:10755000014208B502D0D060FEF7BEFE08BD00BFF4
:107560000008005803689A69910744BF00229A6294
:107570009A69D2075EBF9A6942F001029A61704728
:1075800030B5039D04682B4343EA0243064A606812
:10759000C1F309010B4342EA555223F0004320EAAC
:1075A00002000343636030BDFF63FF0303682DE9FE
:1075B000F0419C6914F0100405460F4616466FD042
:1075C00010220024DA61A0462B689A69900661D4E3
:1075D000B8F1000F35D044F0040401202E68B369DF
:1075E000D90541BF4FF48072F26144F001040120DB
:1075F0005A0541BF4FF4806244F00804F261012053
:107600009B054FD54FF4007344F00204F361284604
:10761000FFF7A8FF736823F0FF7323F48B3323F481
:10762000FF7323F0010373606B6C23436B642023AF
:1076300085F84130002385F8423085F8403001203C
:1076400032E07A1CC1D0FDF795FF801BB84201D80B
:10765000002FB9D12B68596895F842209869000429
:10766000D2B20AD5490408D4202A06D05A6842F476
:1076700080425A60FDF77EFF06462B689B699B0699
:10768000A2D4FDF777FF801B1928F6D920244FF0EC
:10769000010899E7B8F1000F9DD12022DA619AE73D
:1076A00020469BE70028B2D1BDE8F08170B50446C2
:1076B0000D46164623689B699B0701D500201FE0F5
:1076C000324629462046FFF771FFC0B96A1CF1D047
:1076D000FDF750FF801BA84201D8002DEAD1236896
:1076E0009B6913F00203E5D1626C84F8403042F0EC
:1076F00020026264202284F8412084F84230012074
:1077000070BD2DE9F041DDF8188004460F4616469D
:107710001D4623689B6937EA03030CBF012300233E
:10772000B34201D0002025E0424629462046FFF71B
:107730003DFFF0B96B1CECD0FDF71CFFA0EB08007F
:10774000A84201D8002DE4D123689B6937EA0303DE
:107750000CBF01230023B342DBD1636C43F0200351
:107760006364202384F84130002384F8423084F895
:1077700040300120BDE8F08170B504460D46164644
:1077800023689B699B0601D500201DE032462946EF
:107790002046FFF70BFFB0B9FDF7ECFE801BA842B7
:1077A00001D8002DECD123689B6913F02003E7D1A9
:1077B000626C84F8403042F020026264202284F837
:1077C000412084F84230012070BD00002DE9F843CB
:1077D000DFF8989005460E46174600244FF0100833
:1077E0002B689B695B0700D414B12046BDE8F88381
:1077F0003A4631462846FFF7D9FE2B689A69044677
:1078000090060CD4003C18BF0124FDF7B3FEC01B4A
:10781000B04201D8002EE3D1D4B10124E0E79CB9F5
:107820009A699A69D10611D504222021C3F81C80D7
:107830006A64D9615A6802EA09025A6085F84110FF
:1078400085F8404085F842400124DEE76C64DCE7BF
:107850002B689B695A07C3D46B6C85F8404043F092
:1078600020036B64202385F84130D6E700E800FE52
:1078700010B5044600284ED090F8413003F0FF02C6
:107880001BB980F84020FDF78DFA242384F841309D
:1078900023681A6822F001021A60626822F070629E
:1078A0001A619A6822F400429A60D4E902210129FF
:1078B00006D142F400429A605A6822F4006207E05E
:1078C00042F4044202299A60F6D15A6842F40062F6
:1078D0005A605A6842F0007242F400425A60DA6814
:1078E00022F40042DA60D4E904210A43A16942EAA1
:1078F0000122DA60D4E907210A431A601A6842F0CB
:1079000001021A6000202023606484F84130206363
:1079100084F8420010BD0120FCE710B5044698B180
:107920000268242380F84130136823F001031360B8
:10793000FDF77CFA0020606484F8400084F8410080
:10794000206384F8420010BD0120FCE72DE9F347D5
:10795000994690F841300A9F202B04460E469046E7
:1079600040F09C8090F84030012B00F097804FF061
:10797000010A80F840A0FDF7FDFD1923054600909F
:1079800052464FF400412046FFF7BBFE18B10120DC
:1079900002B0BDE8F087212384F84130102384F839
:1079A00042306064A4F82A90638DC4F824809BB2AE
:1079B000FF2B98BF628D606395BF92B2FF224FF09C
:1079C00000734FF0807322859AB14146D4F800C00D
:1079D00011F8010BCCF828006162618D013989B280
:1079E000013A618592B22E49228501320091D2B2CC
:1079F00001E02B49009131462046FFF7C1FD638D20
:107A00009BB22A4639462046BBB9FFF7B5FE00288F
:107A1000BDD123682021D9615A6822F0FF7222F477
:107A20008B3222F4FF7222F001025A6084F8411076
:107A300084F8400084F84200AAE7FFF737FE0028E8
:107A4000A5D1636A226813F8011B91626362638D9A
:107A5000228D013B9BB26385638D013A92B29BB24A
:107A60002285002BCBD0002AC9D100953B4680212E
:107A70002046FFF746FE002889D1638D9BB2FF2B7D
:107A800005D9FF2222854FF080730090B3E7628D05
:107A900092B222854FF000730090A8E7022077E7AA
:107AA000002000802DE9F347984690F841300A9F66
:107AB000202B04460E46914640F0878090F84030D7
:107AC000012B00F082804FF0010A80F840A0FDF702
:107AD00051FD19230546009052464FF400412046BF
:107AE000FFF70FFE18B1012002B0BDE8F087222396
:107AF00084F84130102384F842306064A4F82A806E
:107B0000638DC4F824909BB2FF2B6063304B26D961
:107B1000FF22228500934FF0807331462046FFF705
:107B20002FFD638D9BB22A4639462046FBB9FFF7ED
:107B300023FE0028D7D123682021D9615A6822F07A
:107B4000FF7222F48B3222F4FF7222F001025A609B
:107B500084F8411084F8400084F84200C4E7628D44
:107B600092B2228500934FF00073D2B2D5E7FFF7AF
:107B70002DFE0028B7D123685A6A636A1A70636AB7
:107B8000228D01336362638D013B9BB26385638DFC
:107B9000013A92B29BB22285002BC2D0002AC0D1FA
:107BA00000953B4680212046FFF7ABFD00289AD187
:107BB000638D9BB2FF2B03D9FF2222850090AAE799
:107BC000628D92B222850090CDE702208CE700BF43
:107BD0000024008010B590F84120202A0346D4B23A
:107BE0001CD190F84020012A18D0242280F841208E
:107BF0000268106820F001001060106820F48050C6
:107C000010601068014311601168002041F001010B
:107C1000116083F8414083F8400010BD0220FCE76A
:107C200010B590F84120202A0346D4B21BD190F819
:107C30004020012A17D0242280F8412002681068D1
:107C400020F001001060106820F4706040EA01210B
:107C500011601168002041F00101116083F841407A
:107C600083F8400010BD0220FCE70000024A1368C0
:107C700043F4807313607047000400580D4B10B537
:107C80005B690C4628B99A0507D500F027F820B1A2
:107C900010BD9B0501D400F019F8074A1369012CA7
:107CA00023F00403136101D130BFF1E740BF20BFCF
:107CB00020BFEDE70004005800ED00E0024B18681B
:107CC00000F4C060704700BF00040058024A136807
:107CD00043F4804313607047000400580C4A136853
:107CE00023F4804313600B4B1B6832214B430A493A
:107CF000B3FBF1F35169890500D533B9536913F426
:107D0000007F14BF032000207047013BF2E700BF53
:107D1000000400581400002040420F000B4A136872
:107D200023F0070343F002031360094B1A6901288B
:107D300042F004021A6105D130BF1A6922F0040230
:107D40001A61704740BF20BF20BFF6E7000400580B
:107D500000ED00E04FF0B0431868C0F340407047BA
:107D60004FF0B0431868C0F3400070474FF0B04286
:107D7000536823F47F4343EA0023536070474FF076
:107D8000B0431868C0F34060704700007FB54FF003
:107D9000B0432C4AD3F80831C0F3031003F00F03AB
:107DA00052F82040284A52F82330B4FBF3F4FFF78E
:107DB00085FF264B054693E80700B5F5007F04AB29
:107DC00003E9070010D0224B9C4218D303F5B703F8
:107DD00003F67F539C4229D903F5741303F510630E
:107DE0009C4225D802230BE01A4B9C4207D91A4B20
:107DF0009C421BD903F5370303F5D853F0E7002362
:107E000004AA02EB830353F80C4C144D2B6823F0A7
:107E1000070323432B60FDF7ADFB06462B6803F0F9
:107E200007039C4206D1002004B070BD0123E7E7A0
:107E30000024EAE7FDF79EFB801B0228EED9032011
:107E4000F2E700BF78E20008D8E20008A4D80008F2
:107E5000C0CF6A00BFEA21013F93340200400058BE
:107E60004FF0B04310B59A68D96812F00C0205D0F3
:107E70000C2A4AD101F00303012B51D14FF0B0413C
:107E80002B480B6813F0080306D00B6813F00803A7
:107E900037D1D1F8941007E00C68240756BFD1F809
:107EA00094300968C3F3032350F82330002A0CBF31
:107EB000184600204FF0B0418A6802F00C020C2AEC
:107EC0001ED1CA6802F00302022A2ED0032A06D16C
:107ED0000B68184A13F4801F174B18BF13464FF056
:107EE000B042D068D168D268C0F306205843C1F3CD
:107EF00002130133B0FBF3F0530F0133B0FBF3F087
:107F000010BD0B68C3F30313CEE7042A05D0082A7B
:107F100006D11B6813F4801305D006480023C9E777
:107F200000231846C6E70448C4E7024BD7E700BF62
:107F300078E200080024F4000048E80108B5FFF7E3
:107F40008FFF4FF0B043044A9B68C3F3031352F80A
:107F50002330B0FBF3F008BDD8E200082DE9F04172
:107F60000446002853D04FF0B0439D68DE68036894
:107F70009B0605F00C0506F0030668D5026A1DB1E4
:107F80000C2D46D1012E44D1002A40D04FF0B043F1
:107F9000A16A1A68170756BFD3F894301B681B09EB
:107FA00003F0F00399421FD90846FFF7EFFE0028BF
:107FB0002DD14FF0B042136843F0080313601368EB
:107FC000A16A23F0F0030B431360606AFFF7CEFE53
:107FD000FFF7B4FFAB4B1860AB4B1868FEF77CFCA7
:107FE000002834D0BDE8F0814FF0B042136843F070
:107FF00008031360136823F0F0030B431360606AF7
:10800000FFF7B4FE0846FFF7C1FE0028E0D00120CC
:10801000E8E74FF0B043002A54D01A6842F001025A
:108020001A60FDF7A7FA0746FFF79AFE002842D02C
:108030004FF0B042136843F0080313601368A16A5D
:1080400023F0F0030B431360606AFFF78FFE236891
:10805000D80748D42368990700F18C8023681E074D
:1080600040F1FA80A3694FF0B046002B00F0E180A8
:10807000D6F89430E16903F01002914200F0C48018
:1080800003F00302022AC2D0D80740F1B380D6F829
:10809000943023F00103C6F89430FDF76BFA0746DD
:1080A000D6F89430990740F1A580FDF763FAC31B19
:1080B000112BF5D904E0FDF75DFAC01B0228B3D9F6
:1080C00003208FE71A6822F001021A60FDF752FAC6
:1080D0000746FFF745FE0028B9D0FDF74BFAC01B55
:1080E0000228F6D9ECE7082D03D00C2D05D1032E7C
:1080F00003D16368002BADD189E74FF0B043A1688D
:108100001A6822F480120A431A606268B2F5803F4E
:1081100010D11A6842F480321A60FDF72BFA074634
:10812000FFF718FE002895D1FDF724FAC01B64283C
:10813000F6D9C5E7B2F5041F04D11A6842F400125B
:108140001A60E6E7196821F480311960196821F492
:1081500000111960002AE0D1FDF70CFA0746FFF77D
:10816000F9FD00283FF476AFFDF704FAC01B642840
:10817000F5D9A5E7042D236903D00C2D0ED1022ECD
:108180000CD1002B3FF443AF4FF0B042616953680C
:1081900023F0FE4343EA016353605FE74FF0B046CC
:1081A000BBB1336843F480733360FDF7E3F90746EE
:1081B00033685A0505D4FDF7DDF9C31B022BF7D947
:1081C0007EE77368626923F0FE4343EA02637360EB
:1081D00044E7336823F480733360FDF7CBF9074637
:1081E00033685B057FF53AAFFDF7C4F9C31B022B7B
:1081F000F6D965E74FF0B042E169D2F8943023F048
:1082000010030B43C2F894304FF0B047D7F89430C6
:1082100043F00103C7F89430FDF7ACF90646D7F8F0
:1082200094309A0718D4FDF7A5F9831B112BF6D9C2
:1082300046E7D6F8943023F00103C6F89430FDF7F2
:1082400099F90746D6F894309B0705D5FDF792F9C2
:10825000C31B112BF6D933E72368580754D50B4FAE
:108260003B68D90514D4FFF701FDFDF783F90646F5
:108270003B68DA050CD4FDF77DF9831B022BF7D997
:108280001EE700BF140000201C000020000400585E
:10829000E3684FF0B046002B58D023F08003052B45
:1082A00002BFD6F8903043F00403C6F890304FF088
:1082B000B046FDF75FF9D6F8903043F0010307466A
:1082C000C6F8903041F28838D6F890309B0705D434
:1082D000FDF750F9C31B4345F6D9F1E6E36823F0F7
:1082E0000403812B1BD1FDF745F9D6F8903043F0FC
:1082F0008003C6F8903007464FF0B04641F2883808
:10830000D6F89030180504D5E36A002B4AD1002036
:1083100068E6FDF72FF9C01B4045F1D9D0E6FDF71F
:1083200029F9D6F8903023F08003C6F8903007463C
:108330004FF0B04641F28838D6F890301905E3D5B1
:10834000FDF718F9C01B4045F6D9B9E6FDF712F95B
:10835000D6F8903023F080030746C6F8903041F2FB
:108360008838D6F890301A0516D4FDF703F9D6F8F8
:10837000903023F00103C6F8903007464FF0B04824
:1083800041F28836D8F890309B07BDD5FDF7F2F85A
:10839000C31BB342F6D993E6FDF7ECF8C01B40458A
:1083A000DFD98DE60C2D4ED0022B4FF0B0431A686A
:1083B00022F080721A6033D1FDF7DCF80546FFF732
:1083C000DEFC38BBD4E90C314FF0B0420B43D0682F
:1083D0002D4901400B43E16B0B43216C0B43616C56
:1083E0000B43A16B43EA0123D360136843F080730E
:1083F0001360D36843F08053D360FDF7BBF80446A5
:10840000FFF7BDFC002882D1FDF7B4F8001B0A2855
:10841000F6D955E6FDF7AEF8401B0A28CFD94FE64E
:10842000FDF7A8F80446FFF7AAFC30B94FF0B042B8
:10843000164BD1680B40D36069E7FDF79BF8001B32
:108440000A28F0D93CE6012B3FF4E1AD4FF0B043F0
:10845000D868236B00F003029A427FF4D8AD626BB8
:1084600000F0700393427FF4D2ADA26B00F4FE43A0
:10847000B3EB022F7FF4CBAD636C00F06040C01A09
:1084800018BF0120AEE500BF8C80C111FCFFFEEEDD
:108490002DE9F0410D46044610B90120BDE8F081F8
:1084A000684E336803F007038B4216D323689A079C
:1084B00027D54FF0B047A268BB6823F0F003134301
:1084C000BB60FDF757F80646BB68DB0319D4FDF720
:1084D00051F8831B022BF7D911E0336823F007030F
:1084E0000B433360FDF746F80746336803F0070394
:1084F000AB42DBD0FDF73EF8C01B0228F5D90320C4
:10850000CCE72368580617D54FF0B0476269D7F813
:10851000083123F00F0343EA1213C7F80831FDF7BF
:1085200029F80646D7F80831D90305D4FDF722F813
:10853000831B022BF6D9E2E723685A0713D54FF0C5
:10854000B047E268BB6823F4E0631343BB60FDF708
:1085500011F80646BB689B0305D4FDF70BF8831B97
:10856000022BF7D9CBE72368180714D54FF0B04793
:108570002269BB6823F4605343EAC203BB60FCF783
:10858000F9FF0646BB68590305D4FCF7F3FF831BCC
:10859000022BF7D9B3E72368DA070FD4294C2368F5
:1085A00003F00703AB4239D8FFF7C8FC264B18602D
:1085B000264BBDE8F0411868FEF78EB96268022AC2
:1085C0001DD1FFF7C7FB00283FF467AF4FF0B0465F
:1085D00041F28838B36823F003031343B360FCF718
:1085E000C9FF0746B368626803F00C03B3EB820F60
:1085F000D4D0FCF7BFFFC01B4045F3D97FE7032A67
:1086000002D1FFF7BCFBDEE712B9FFF7A9FBDAE7FF
:108610004FF0B0431B685B05D8D43EE7236823F0D6
:1086200007032B432360FCF7A5FF0646236803F0EE
:108630000703AB42B8D0FCF79DFF801B0228F5D999
:108640005DE700BF00400058140000201C0000201F
:1086500008B5FFF773FC4FF0B043044A9B68C3F3BF
:10866000022352F82330D84008BD00BFB8E200080A
:1086700008B5FFF763FC4FF0B043044A9B68C3F3AF
:10868000C22352F82330D84008BD00BFB8E200082A
:108690004FF0B043D3F89000C0F3400070474FF064
:1086A000B0410209D1F8883002F47F22000123EAA8
:1086B000020300F47F200343C1F8883070474FF075
:1086C000B041020CD1F88830120423EA020343EAD5
:1086D0000040C1F8880070470368DA0370B50446AB
:1086E00039D5FFF7C3FAFCF745FF614E05463368FD
:1086F000DB0532D54FF0B043616BD3F8902002F424
:10870000407291421DD0D3F89010D3F8902042F4DB
:108710008032C3F89020D3F8902021F4407022F4E6
:1087200080328D07C3F89020C3F8900009D5FCF77C
:1087300021FF41F288360546FFF7AAFF012840F0E5
:1087400090804FF0B042616BD2F8903023F44073C8
:108750000B43C2F89030002605E0FCF70BFF401BEE
:108760000228C4D903262568E8070AD54FF0B0418E
:108770006268D1F8883023EA124392B21343C1F8F9
:108780008830A9070AD54FF0B041A268D1F88830E7
:1087900023EA124392B21343C1F88830AA0609D5DE
:1087A0004FF0B0422169D2F8883023F440630B4384
:1087B000C2F88830AB0502D5206AFFF780FF680554
:1087C00002D5606AFFF77BFF290502D5A06AFFF793
:1087D00076FF6A0602D56069FFF761FF2B0602D5B6
:1087E000A069FFF75CFFE80502D5E069FFF757FFD6
:1087F000E90610D54FF0B042E168D2F8883023F492
:1088000040730B43C2F88830B1F5807F02BFD36854
:1088100043F08073D3602A040ED54FF0B042216B31
:10882000D2F8883023F040430B43C2F8883019B99E
:10883000D36843F08073D3606B0410D54FF0B0421F
:10884000E16AD2F8883023F040530B43B1F1005F66
:10885000C2F8883003D1D36843F48033D360304604
:1088600070BDFCF787FE401BB0427FF665AF79E72D
:108870000004005830B590F82C30012B02464FF020
:10888000020022D0174B82F82D00CA24012582F85D
:108890002C505C6253245C62B1F5807F146B996943
:1088A00014D121F488519961596C24F0010421F00C
:1088B000004159641463DD650A4BFF2159620020B1
:1088C000012382F82D3082F82C0030BD21F40851AC
:1088D0009961D96C24F0020421F00041D964146339
:1088E000D865E9E70028004070B50B4E036B756D45
:1088F0001D40EA07044603D50123F365FCF759FF41
:10890000AB0704D50223F365204600F0C9F9012323
:1089100084F82D3070BD00BF0028004038B50A4CE7
:10892000E36823F02003E360FCF724FE0546E368D8
:108930009B0601D5002038BDFCF71CFE401BB0F59E
:108940007A7FF4D90320F6E700280040F8B5114DEE
:10895000EC6814F0400406461AD1EB6843F080033B
:10896000EB60FCF707FE23460746EC6814F0400472
:1089700001D1032B01D11846F8BDFCF7FBFDC01B4C
:10898000B0F57A7F234684BF032386F82D30ECE7C9
:108990000023F0E70028004038B50F4CE36823F0CF
:1089A0008003E360A3699B06054606D4FFF7B6FF84
:1089B00010B1032085F82D0038BDA36923F02003F2
:1089C000A361FFF7ABFF10B1032085F82D00A36969
:1089D00043F02003A361EFE70028004038B50446C8
:1089E00000284BD090F82D3003F0FF021BB980F81F
:1089F0002C20FCF741FC0223214D84F82D30EB683C
:108A0000DB0636D4CA236B6253236B622046FFF722
:108A10009DFF10B1FF236B6238BDAB6923F08E63FD
:108A200023F04003AB6121696368AA690B431343D8
:108A3000A2691343AB61D4E9022343EA02432B61E9
:108A4000D4E90931EA680B4322F4F8521343EB608E
:108A50002046FFF7A1FF0028DCD1D4E90713AA695B
:108A60000B4322F06042134362691343AB61FF235F
:108A70006B62012384F82D300020CDE70120CBE785
:108A8000002800400023092803D840EA0310C0B2A0
:108A900070470A380133C0B2F5E700002DE9F0470E
:108AA00090F82C30012B05464FF0020069D00123CD
:108AB00085F82C304E4B85F82D00DE6806F44076A4
:108AC000B6F5807F78D04C69087891F8019091F8DC
:108AD00002A091F82470002A55D19B6913F040033D
