:020000040800F2
:10300000004000208D580008255200082752000873
:10301000295200082B5200082D5200080000000021
:103020000000000000000000000000002F52000817
:1030300031520008000000003352000835520008E9
:10304000DD580008DD58000839520008DD58000836
:10305000DD580008DD580008DD580008455200081A
:10306000DD580008DD580008DD580008DD5800086C
:10307000DD580008DD580008DD5800084D520008F2
:10308000DD580008DD580008DD580008DD5800084C
:1030900000000000DD58000859520008DD58000803
:1030A000DD580008DD580008DD580008DD5800082C
:1030B000DD580008DD580008DD580008DD5800081C
:1030C000DD580008DD580008DD580008DD5800080C
:1030D000DD5800086D520008DD580008DD58000872
:1030E000DD580008DD58000879520008DD58000856
:1030F000DD5800080000000000000000DD58000856
:10310000DD580008DD58000885520008DD58000829
:10311000DD580008DD580008DD580008DD580008BB
:10312000DD580008DD580008DD580008DD580008AB
:08313000DD580008DD5800081D
:1031400010B5054C237833B9044B13B10448AFF3E1
:1031500000800123237010BD7C00002000000000CF
:10316000D8CE000808B5034B1BB103490348AFF3A1
:10317000008008BD0000000080000020D8CE0008BC
:10318000034613F8012B002AFBD1181A01387047A7
:1031900001F0FF01102A2BDB10F0070F08D010F808
:1031A000013B013A8B422DD010F0070F42B3F6D10C
:1031B000F0B441EA012141EA014122F007047FF025
:1031C00000070023F0E80256083C85EA010586EA7C
:1031D000010685FA47F5A3FA87F586FA47F6A5FAB8
:1031E00087F68EB9EED1F0BC01F0FF0102F00702C4
:1031F00032B110F8013B013A83EA010313B1F8D16F
:103200000020704701387047002D06BF354603384F
:10321000073815F0010F07D1013015F4807F02BF88
:10322000013015F4C03F0130F0BC0138704700BFD9
:1032300080F0004002E000BF81F0004142001FBF6B
:103240005FEA410392EA030F7FEA226C7FEA236C74
:103250006AD04FEA1262D2EB1363C1BFD218414069
:1032600048404140B8BF5B42192B88BF704710F0FF
:10327000004F40F4000020F07F4018BF404211F0A2
:10328000004F41F4000121F07F4118BF494292EA0A
:10329000030F3FD0A2F1010241FA03FC10EB0C0036
:1032A000C3F1200301FA03F100F0004302D54942C3
:1032B00060EB4000B0F5000F13D3B0F1807F06D370
:1032C00040084FEA310102F10102FE2A51D2B1F168
:1032D000004F40EBC25008BF20F0010040EA03005D
:1032E0007047490040EB0000013A28BFB0F5000FDD
:1032F000EDD2B0FA80FCACF1080CB2EB0C0200FA93
:103300000CF0AABF00EBC25052421843BCBFD040E1
:103310001843704792F0000F81F4000106BF80F45B
:1033200000000132013BB5E74FEA41037FEA226C1E
:1033300018BF7FEA236C21D092EA030F04D092F0E9
:10334000000F08BF0846704790EA010F1CBF00201D
:10335000704712F07F4F04D1400028BF40F000407A
:10336000704712F100723CBF00F50000704700F09A
:10337000004343F0FE4040F4000070477FEA2262C1
:1033800016BF08467FEA23630146420206BF5FEA92
:10339000412390EA010F40F4800070474FF0000392
:1033A00004E000BF10F0004348BF40425FEA000C59
:1033B00008BF704743F0964301464FF000001CE001
:1033C00050EA010208BF70474FF000030AE000BF57
:1033D00050EA010208BF704711F0004302D5404295
:1033E00061EB41015FEA010C02BF84460146002007
:1033F00043F0B64308BFA3F18053A3F50003BCFA22
:103400008CF2083AA3EBC25310DB01FA02FC6344CE
:1034100000FA02FCC2F12002BCF1004F20FA02F2D5
:1034200043EB020008BF20F00100704702F12002C8
:1034300001FA02FCC2F1200250EA4C0021FA02F229
:1034400043EB020008BF20EADC7070474FF0FF0C2E
:103450001CEAD0521EBF1CEAD15392EA0C0F93EA29
:103460000C0F6FD01A4480EA010C400218BF5FEACB
:1034700041211ED04FF0006343EA501043EA51113E
:10348000A0FB01310CF00040B1F5000F3EBF490038
:1034900041EAD3715B0040EA010062F17F02FD2A3C
:1034A0001DD8B3F1004F40EBC25008BF20F001001F
:1034B000704790F0000F0CF0004C08BF49024CEA36
:1034C000502040EA51207F3AC2BFD2F1FF0340EAC8
:1034D000C250704740F400004FF00003013A5DDC39
:1034E00012F1190FDCBF00F000407047C2F100027A
:1034F000410021FA02F1C2F1200200FA02FC5FEA67
:10350000310040F1000053EA4C0308BF20EADC70B0
:10351000704792F0000F00F0004C02BF400010F422
:10352000000F013AF9D040EA0C0093F0000F01F0CF
:10353000004C02BF490011F4000F013BF9D041EAF1
:103540000C018FE70CEAD15392EA0C0F18BF93EAF3
:103550000C0F0AD030F0004C18BF31F0004CD8D11D
:1035600080EA010000F00040704790F0000F17BFA4
:1035700090F0004F084691F0000F91F0004F14D0EA
:1035800092EA0C0F01D142020FD193EA0C0F03D142
:103590004B0218BF084608D180EA010000F0004045
:1035A00040F0FE4040F40000704740F0FE4040F420
:1035B000400070474FF0FF0C1CEAD0521EBF1CEABF
:1035C000D15392EA0C0F93EA0C0F69D0A2EB0302DD
:1035D00080EA010C49024FEA402037D04FF0805377
:1035E00043EA111143EA10130CF000408B4238BF3C
:1035F0005B0042F17D024FF4000C8B4224BF5B1A4A
:1036000040EA0C00B3EB510F24BFA3EB510340EA97
:103610005C00B3EB910F24BFA3EB910340EA9C0045
:10362000B3EBD10F24BFA3EBD10340EADC001B01B5
:1036300018BF5FEA1C1CE0D1FD2A3FF650AF8B4259
:1036400040EBC25008BF20F0010070470CF0004C66
:103650004CEA50207F32C2BFD2F1FF0340EAC25091
:10366000704740F400004FF00003013A37E792F052
:10367000000F00F0004C02BF400010F4000F013AB0
:10368000F9D040EA0C0093F0000F01F0004C02BFAB
:10369000490011F4000F013BF9D041EA0C0195E714
:1036A0000CEAD15392EA0C0F08D142027FF47DAFAD
:1036B00093EA0C0F7FF470AF084676E793EA0C0F9D
:1036C00004D14B023FF44CAF08466EE730F0004C9B
:1036D00018BF31F0004CCAD130F000427FF45CAF2B
:1036E00031F000437FF43CAF5FE700BF4FF0FF3C99
:1036F00006E000BF4FF0010C02E000BF4FF0010CEC
:103700004DF804CD4FEA40024FEA41037FEA226CB4
:1037100018BF7FEA236C11D001B052EA530C18BFD6
:1037200090EA010F58BFB2EB030088BFC81738BF3B
:103730006FEAE17018BF40F0010070477FEA226C29
:1037400002D15FEA402C05D17FEA236CE4D15FEA25
:10375000412CE1D05DF8040B704700BF8446084659
:103760006146FFE70FB5FFF7C9FF002848BF10F11A
:10377000000F0FBD4DF808EDFFF7F4FF0CBF01205F
:1037800000205DF808FB00BF4DF808EDFFF7EAFFE9
:1037900034BF012000205DF808FB00BF4DF808EDA4
:1037A000FFF7E0FF94BF012000205DF808FB00BF99
:1037B0004DF808EDFFF7D2FF94BF012000205DF81F
:1037C00008FB00BF4DF808EDFFF7C8FF34BF01202C
:1037D00000205DF808FB00BF4FEA40024FEA4103BA
:1037E0007FEA226C02D15FEA402C08D17FEA236C89
:1037F00002D15FEA412C02D14FF0000070474FF038
:10380000010070474FEA4002B2F1FE4F0FD34FF074
:103810009E03B3EB12620DD94FEA002343F000433D
:1038200010F0004F23FA02F018BF404270474FF0EB
:103830000000704712F1610F01D1420205D110F072
:10384000004008BF6FF0004070474FF00000704725
:1038500042000ED2B2F1FE4F0BD34FF09E03B3EBFA
:10386000126209D44FEA002343F0004323FA02F026
:1038700070474FF00000704712F1610F01D1420212
:1038800002D14FF0FF3070474FF00000704700BF8B
:1038900053B94AB9002908BF00281CBF4FF0FF31B7
:1038A0004FF0FF3000F06AB9ADF1080C6DE904CEBD
:1038B00000F006F8DDF804E0DDE9022304B070470B
:1038C0002DE9F047089D0C46002B4ED194468C45BF
:1038D0008646B2FA82F262D94AB1C2F1200391401F
:1038E00020FA03F30CFA02FC194300FA02FE4FEA35
:1038F0001C471FFA8CF6B1FBF7F44FEA1E4307FB97
:10390000141143EA014304FB06F199420AD91CEB66
:10391000030304F1FF3080F01281994240F20F81DD
:10392000023C6344591A1FFA8EF3B1FBF7F007FB10
:10393000101143EA014300FB06F69E420AD91CEB34
:10394000030300F1FF3180F0FC809E4240F2F980D9
:10395000634402389B1B40EA044000211DB1D34060
:103960000022C5E90032BDE8F0878B4205D90DB1D0
:10397000C5E9000100210846F5E7B3FA83F1002903
:1039800046D1A34202D39042C0F0F080861A64EB85
:1039900003030120002DE6D0C5E90063E3E7002A18
:1039A00040F09080A1EB0C044FEA1C481FFA8CF702
:1039B0000121B4FBF8F64FEA1E4308FB164443EA24
:1039C000044307FB06F0984208D91CEB030306F1F9
:1039D000FF3402D2984200F2CD8026461C1A1FFA0C
:1039E0008EF3B4FBF8F008FB104443EA044300FBF9
:1039F00007F79F4208D91CEB030300F1FF3402D202
:103A00009F4200F2B0802046DB1B40EA0640A5E75B
:103A1000C1F120068B4022FA06F71F4320FA06FC6C
:103A200004FA01F343EA0C03F44000FA01F8380CFD
:103A30004FEA1349B4FBF0FE1FFA87FC00FB1E445B
:103A400049EA04440EFB0CF9A14502FA01F20AD935
:103A50003C190EF1FF3A80F08480A14540F281804C
:103A6000AEF1020E3C44A4EB09041FFA83F9B4FB47
:103A7000F0F300FB134449EA044403FB0CFCA445A7
:103A800007D93C1903F1FF3067D2A44565D9023B41
:103A90003C4443EA0E40A0FB0293A4EB0C049C427E
:103AA000CE469C4651D34ED055B1B8EB0E0364EBD5
:103AB0000C0404FA06F6CB401E43CC40C5E9006472
:103AC000002150E7C2F1200320FA03F10CFA02FCB6
:103AD00024FA03F394400C434FEA1C4800FA02FE18
:103AE0001FFA8CF7B3FBF8F008FB1031230C43EA04
:103AF000014300FB07F1994208D91CEB030300F1D5
:103B0000FF362CD299422AD9023863445B1AA4B2F8
:103B1000B3FBF8F108FB113344EA034401FB07F35C
:103B2000A34208D91CEB040401F1FF3613D2A342CF
:103B300011D902396444E41A41EA004139E70446E4
:103B4000F0E6084606E7C845AED2B9EB020E63EBD5
:103B5000070C0138A8E73146EDE7034699E7304600
:103B6000D4E7D6467FE7634402384DE7064623464E
:103B700008460FE7023E634430E700BF704700BFCE
:103B8000F7B5154606460F4603F080F9154B164863
:103B90004FF400421A6106F17842D30A022102EB87
:103BA000C502C0E90013C3EBD223DB0A013301A92C
:103BB000836003F003FA044680B9083FAC4206EB89
:103BC000C40103DB03F074F9002009E0F7E90223E4
:103BD000012003F0ADF908B90134EFE703F074F9FF
:103BE00003B0F0BD00400058A4000020520092B283
:103BF00000EB8202091A904200D1704703680B5013
:103C00000430F8E710B5ADF5FA6D0446FA22044821
:103C10006946FFF7EBFF1DF904000DF5FA6D10BDC5
:103C200000F8010810B5ADF5FA6D0446FA22044813
:103C30006946FFF7DBFF5DF804000DF5FA6D10BD76
:103C400000F8010870B50A4EADF5FA6D04460D4650
:103C500030466946FA22FFF7C9FFFA226946304624
:103C60000DF80450FFF78CFF0DF5FA6D70BD00BF25
:103C700000F8010870B50A4EADF5FA6D04460D4620
:103C800030466946FA22FFF7B1FFFA22694630460C
:103C90004DF80450FFF774FF0DF5FA6D70BD00BFCD
:103CA00000F8010813B5044603F0F0F80A4B0B487E
:103CB0004FF400421A6104F1784402230360E40ADD
:103CC000012301A94460836003F078F908B103F08F
:103CD000FBF802B010BD00BF004000589800002063
:103CE0001148124A08B50023C0E9002304224261AA
:103CF0000122C0E90233C0E90933C0E90C33036192
:103D000003838376C26180F8203080F82C3083638F
:103D100080F83C30C36402F0FDFC18B1BDE80840F7
:103D200001F07AB808BD00BFB000002000240140B7
:103D300010B596B004461422002103A808F042FCF6
:103D40003822002108A808F03DFC2268184B9A424E
:103D50002BD14FF48043089308A84FF0805313935E
:103D600003F0E8FF08B101F057F84FF0B04303A9A2
:103D70001A6E42F400721A661A6E02F4007202920F
:103D8000029ADA6C42F00102DA64DB6C03F00103A0
:103D90000193019B4FF480620323CDE903234FF08D
:103DA00090400023059303F057F916B010BD00BFF3
:103DB00000240140F8B50546174608F018FC0446F3
:103DC00060B1461B2846FFF7DBF9C6F10102013658
:103DD00002442146A81908F0DBFB2770F8BDF8B5AE
:103DE000164607460C461D46FFF7CAF9B04211D3E6
:103DF000731983420EDCB81900239D4205DC25EAC5
:103E0000E575002363552046F8BD10F8012BE254F8
:103E10000133F2E70024F6E770B50E46144600259C
:103E2000A54205DB0CD10378002B08BF002070BD34
:103E3000314608F0CFFB0028F9D001300135EFE71B
:103E40000020F4E72DE9F043B34C89B000F000FF07
:103E500014233C222146B14805F00AFCB049412216
:103E60002046FFF7A7FF01224FF480714FF09040EA
:103E700003F018FAAB49204608F0B9FB054688B1B3
:103E80004FF0904000224FF4807103F00BFA20466F
:103E900001F00AF83C220021204609B0BDE8F043B9
:103EA00008F090BBA049204608F0A1FBC8B104204F
:103EB000FFF7B8FE064600F0A3FC9C4B0095CDE949
:103EC00001502A462946022007F0BCFD0A2001F0D5
:103ED00061FA0096964B2A462946022007F0B2FD69
:103EE000D8E79449204608F082FB054610B102F05D
:103EF000ADF8CFE79049204608F079FB064648B177
:103F00008E4B01221A7029468D4B2A46022007F05B
:103F100099FDBFE78B49204608F069FB054648B389
:103F200031465020FFF7A6FE8748FFF7BBFE31461B
:103F300004465020FFF79EFE94B9844B224621464A
:103F4000012007F07FFD4FF0904022464FF4807132
:103F500003F0A8F9C82001F01DFA02F03FFD05E0CA
:103F60007B4B32463146012007F06CFD3C2200219C
:103F7000694892E77749204608F039FB90B1764BC3
:103F80002A462946012007F05DFD3C2229462046AD
:103F900008F018FB642001F0FDF909B0BDE8F0431A
:103FA00002F01CBD6D49204608F021FB054670B3A8
:103FB0002046FFF7E5F83D210546204608F00AFBBC
:103FC000021BAB1A013B013205A92046FFF707FF90
:103FD00005A808F0A9F9624B421F9A42044611D87D
:103FE00001460420FFF746FE0420FFF71BFE5D4B51
:103FF00018605D4B012284421A70B7D14C4B00947B
:10400000002207E1594B002211460220ACE7584933
:10401000204608F0ECFA20B10420FFF703FE0090E0
:1040200058E75449204608F0E2FA58B32046FFF713
:10403000A7F83D210546204608F0CCFA021BAB1A32
:10404000013B013205A92046FFF7C9FE05A808F08B
:104050006BF9441E072C13D8E1B26420FFF7F2FD80
:104060006420FFF7CFFD844280D10134424B00949D
:1040700000221146022007F0E5FC4FF47A706AE74F
:104080003E4BC0E73E49204608F0B1FA30B164200B
:10409000FFF7B8FD0130384B0090B1E739491E48B1
:1040A00008F0A5FA064638B31B48FFF769F83D212A
:1040B0000546194808F08EFA021BAB1A013B013283
:1040C00005A91548FFF78BFE05A808F02DF94FF656
:1040D000FE73421E9A4204460CD801466C20FFF73C
:1040E000C9FD6C20FFF79EFD84427FF43FAF264B55
:1040F000009485E7254B86E72549074808F077FABD
:104100000546002846D06C20FFF78CFD1E4B009022
:1041100032463146022088E014010020100B0020B6
:1041200052D1000823CF00082BCF000836CF00085B
:104130006ECF000879CF000884CF0008AA0C0020B9
:104140008ACF000896CF000800F801089FCF00082A
:10415000A9CF0008B6CF0008BFCF0008C9CF00081C
:104160007B51010004000020AB0C0020D4CF0008DC
:10417000E2CF0008ECCF0008F3CF0008FACF000828
:1041800004D000080AD0000815D0000820D000088C
:104190002ED00008AF49B04808F029FA40B3AE4825
:1041A000FEF7EEFF3D210646AB4808F013FA021B6E
:1041B000B31A013B013205A9A748FFF710FE05A875
:1041C00008F0B2F80428044606D9A44B2A4629462A
:1041D000022007F037FCC0E0C1B20820FFF732FD33
:1041E0000820FFF70FFDA0422AD19D4B00903FE72A
:1041F0009C49994808F0FBF920B30820FFF702FD1D
:1042000004281DD8DFE800F003080C141800002271
:10421000954B009211467DE701230093934BEFE607
:1042200002200022924B0090114607F00BFC9DE605
:10423000032300938F4BE3E6042300938E4BDFE6CA
:10424000864BE0E68D49844808F0D1F9064640B334
:104250008148FEF795FF3D2105467F4808F0BAF9F1
:10426000021BAB1A013B7C48013205A9FFF7B7FDE1
:104270009DF81440A4F14103022B10D821460C20D4
:10428000FFF7E0FC0C20FFF7BDFC412CC0B202D1CF
:104290007B4B0090B4E6432C7FF468AEF8E7784B94
:1042A000B1E678496C4808F0A2F9054630B10C2017
:1042B000FFF7A8FCC0B2724B009029E7724966482C
:1042C00008F095F9064600284AD06348FEF758FFE3
:1042D0003D210646604808F07DF9021BB31A013BF8
:1042E000013205A95C48FFF77AFD2A462C2105A872
:1042F000FFF792FD08F018F801222C21074605A8C7
:10430000FFF78AFD08F010F8022206462C2105A8C6
:10431000FFF782FD08F008F8F9B204461420FFF711
:1043200091FCF1B21820FFF78DFCE1B21C20FFF7E1
:1043300089FC1420FFF766FC04461820FFF762FC96
:1043400006461C20FFF75EFC504B0094CDE901604F
:104350002A462946022007F075FB3C22294607E63B
:104360004B493D4808F043F90546A0B11420FFF73A
:1043700049FC04461820FFF745FC05461C20FFF7C2
:1043800041FC424B0094CDE90150324631460220B7
:1043900007F058FBEAE53F492F4808F028F958B3E1
:1043A0002D48FEF7EDFE3D2106462B4808F012F998
:1043B000021BB31A013B05A901322748FFF70FFD85
:1043C0002A462C2105A8FFF727FD07F0ADFFC1B253
:1043D0001820FFF737FC1820FFF714FC2E4B009035
:1043E0002A462946022007F02DFB4FF47A7000F090
:1043F000D1FF02F0F3FAB0E72849174808F0F7F8C0
:1044000028B11820FFF7FEFB234B0090F8E5244964
:10441000114808F0ECF80646002859D00E48FEF77F
:10442000AFFE3D2105460C4808F0D4F8021BAB1A3C
:10443000013B013205A90848FFF7D1FC00222C21DD
:1044400005A8FFF7E9FC07F06FFF441E772C2BD976
:10445000144BD8E538D000081401002041D00008E2
:104460004DD0000856D000085ED000086AD0000881
:1044700076D0000882D000088ED000089AD00008BC
:10448000A4D00008AED00008B7D00008C3D0000800
:10449000D5D00008E0D00008E7D00008EED0000832
:1044A000F4D00008FED00008754BC1B2602019702E
:1044B000FFF7C8FB0F236420B4FBF3F1C9B2FFF789
:1044C000C1FB6020FFF79EFBC0B26E4B009097E5EA
:1044D0006D496E4808F08BF8054630B16020FFF753
:1044E00091FBC0B2674B009012E66949674808F03B
:1044F0007EF80646B8B36548FEF742FE3D21064603
:10450000624808F067F8021BB31A013B05A90132A3
:104510005E48FFF764FC2A462C2105A8FFF77CFCC7
:1045200007F002FF012206462C2105A8FFF774FCC4
:1045300007F0FAFEF1B204462420FFF79BFB214668
:104540002820FFF797FB2420FFF76CFB0446282068
:10455000FFF768FB4F4BCDE900402A462946022071
:1045600007F070FAF9E64C49484808F040F805466B
:1045700078B12420FFF756FB04462820FFF752FBB2
:10458000444BCDE9004032463146022007F05AFA4A
:10459000ECE442493D4808F02AF8064600285FD07E
:1045A0000C20FFF72FFB04460820FFF72BFB81466A
:1045B0001420FFF727FB06461820FFF723FB0746CA
:1045C0001C20FFF71FFBE4B2354B00942A46294616
:1045D0008046022007F036FA5FFA89F0042896BF79
:1045E000304BDFF8C49053F820906420FFF70AFBAB
:1045F00005466020FFF706FB04466C20FFF712FB20
:1046000000221146294B0090022007F01BFA0022DD
:104610001146274BCDF80090022007F013FA013520
:1046200000221146234B0095022007F00BFAE4B25A
:104630000022144B00941146022007F003FA3C229A
:104640000021124807F0BEFF0022CDE901781A4B85
:1046500000961146022007F0F5F909B0BDE8F08395
:1046600016490A4807F0C3FF054618B1144B3246F5
:104670003146CAE42378002BEFD0124BA6E500BFE9
:10468000100000200BD1000815D1000814010020F3
:104690001ED1000829D1000837D1000841D10008F7
:1046A000A4D0000874D100081DCF000815D0000860
:1046B00048D10008F3CF0008C3D0000851D100084A
:1046C000A5CF000804D1000810B5064C7020216861
:1046D000FFF7D0FA044B22681A6000F053FE034B38
:1046E000186010BD5C01002058010020500100201E
:1046F00008B50C4B19680C4B1868FEF79DFD0B496B
:1047000020F00040FFF754F818B1BDE80840FFF76B
:10471000DBBF00F037FE064B1B68C01A054B984202
:10472000F3D808BD580100205C0100200000404083
:1047300050010020FFFFA20208B500F023FE014B4C
:10474000186008BD5401002070B5044600F01AFE40
:104750001A4B1B68C01AFEF721FE1949FEF72AFF03
:1047600018490546FEF76AFD01462046FEF764FD3E
:1047700000210446FFF708F800B100241249134E47
:104780002046FEF717FF1249FEF760FE1149FEF7BB
:1047900055FD0D4904462846FEF70CFF0E49FEF76D
:1047A00055FE01462046FEF749FD3168FEF746FDFD
:1047B0003060BDE87040FFF79BBF00BF5401002090
:1047C00000007A446F12833A000061455C010020CA
:1047D000A69B443E2FE33E310000BE42064B0748F5
:1047E000196810B5FEF728FD00210446FEF7CCFF3E
:1047F00000B10024204610BD5C01002000709446EA
:1048000010B5FFF7EBFF0E49FEF7D4FE0D49FEF79A
:104810001DFE00210446FEF7B7FF68B9094920468E
:10482000FEF7D0FF50B94FF07C512046FEF706FD51
:10483000FFF70EF8C0B210BD0024F4E7014CF2E718
:10484000007094460000C842F0B5702085B0FFF7B4
:10485000E9F9284C431C0ABF002320602360256827
:1048600029462846FEF7B8FF48B900212846FEF73A
:104870008BFF20B920492846FEF7A4FF08B100238A
:1048800023601E4B22681A6000F07CFD1C4B1860F0
:10489000FFF7A4FF0646FFF7B3FF04463046FEF7D6
:1048A000B1FF05462046FEF779FD07462046FEF794
:1048B00079FD01463846FEF7BFFC1249FEF7C6FDFA
:1048C000FEF7A0FFCDE902402846FEF76BFD01464A
:1048D0003046FEF7B1FC0B49FEF7B8FDFEF792FF3C
:1048E0000022CDE90050084B1146012007F0AAF83C
:1048F00005B0F0BD5C010020007094465801002016
:10490000500100200000C84288D1000838B50021BD
:104910000446FEF739FF00B10024084D084920463F
:10492000FEF748FE0749FEF791FD2968FEF786FC71
:104930002860BDE83840FFF7DBBE00BF5C01002007
:10494000000061450000A0404FF0B04307B59A6CED
:1049500042F004029A649A6C02F004020192019AF5
:104960009A6C42F001029A649B6C03F0010300937D
:10497000002202210F20009B01F0DEFF0F2003B078
:104980005DF804EB02F00AB808B502F07FFA10B146
:104990006FF0040008BD064B9A6942F040429A61EC
:1049A0004CF2FA321A6102F083FA0028F2D0EFE7F3
:1049B00000400058F0B585B000230D460093064630
:1049C000A8B3FFF7E1FF044670BB02F05FFA88BBB3
:1049D0001A481B4A02230193D0F8E01506F17843E8
:1049E00002EA8121B3FBF1F701FB1733DB0A0293E3
:1049F000D0F8E00505F178410139314402EA80221E
:104A0000B1FBF2F002FB1011C3EBD1230133694675
:104A100001A8039302F0D2FA20B1022814BF6FF06C
:104A20000104012402F044FA204605B0F0BD6FF005
:104A30000504F9E76FF00404F6E700BF0070FF1FFC
:104A400000FCFF03014B186000207047600100204C
:104A50002DE9F04FB0F1006F89B006460F46904641
:104A6000C0F0C080DFF89091644DD9F8E03505EAD8
:104A7000832303F10063013B984200F2B3800029D5
:104A800000F0B38040EA02035B0740F0AE80FFF71E
:104A90007BFF044690BB02F0F9F9002840F0A880A3
:104AA000D9F8E015009705EA812106F17842B2FBBA
:104AB000F1F301FB132208F17843013B3344B3FBCC
:104AC000F1F001FB1033DB0A01334FEAD22AA3EBEA
:104AD000D222012A039388BFC6F30A050AF580375C
:104AE000C6F108038CBFC5F500654546FF02B34615
:104AF0000693039B9A4505D302F0DAF9204609B0E4
:104B0000BDE8F08FA6F10803069A1A4495421CD816
:104B1000009B04950193CDF814B04FF00009059B5C
:104B200009EB0301049B99453DD3009BAB442B4407
:104B3000A8EB0505B5F5006F009328BF4FF400659D
:104B40000AF1010A07F50067D3E753F8081F5A680E
:104B5000B2F1FF3F08BFB1F1FF3FD5D0284B186835
:104B600010B96FF00504C7E727B14FF4006239466A
:104B700007F06EF8DFF888900099D9F80030CBF391
:104B80000A001844AAB207F063F84FF400613846EF
:104B9000FFF710FF00BBD9F8003001934FF400631A
:104BA00005970493B9E7019B07914B4402930120B9
:104BB000D3E9002302F0BCF988B90799019BD1E938
:104BC000000259F80310029B5B689A4208BF8842B2
:104BD00005D109F10809A2E76FF001048CE76FF035
:104BE000030489E74FF0FF3488E76FF0050485E799
:104BF0006FF0040482E700BF0070FF1F00FCFF039A
:104C000060010020B0F1006F10B40DD3084BD3F851
:104C1000E045084B03EA842303F10063013B98421B
:104C200002D810BCFFF7C6BE4FF0FF3010BC704773
:104C30000070FF1F00FCFF034FF0B04382B0DA6C3E
:104C40000243DA64DB6C03400193019B02B07047BE
:104C5000F0B587B01422002101A807F0B3FC0220B0
:104C6000FFF7EAFF0120FFF7E7FF354E354F04203D
:104C7000FFF7E2FF48F2101100224FF0904002F0DF
:104C800011FB304600224FF4805102F00BFB3846F6
:104C900000224FF4005102F005FB0125C0224FF421
:104CA000441301A93046CDE90123039502F0D4F95C
:104CB0004FF4881302210024CDE901134FF09040F6
:104CC00001A9039402F0C8F948F2101301A94FF0AA
:104CD0009040CDE90135CDE9034402F0BDF94FF430
:104CE0008053CDE9013501A9032330460493039491
:104CF00002F0B2F901A94FF400533846CDE901356D
:104D0000CDE9034402F0A8F90F4BC222DA60072074
:104D100001F08AFE162001F087FE22462146072078
:104D200001F00AFE072001F039FE22462146162036
:104D300001F002FE162001F031FE07B0F0BD00BF09
:104D400000040048000800480008005800B59BB067
:104D50004822002108A807F035FC1822002102A8EB
:104D600007F030FC02F0B0FA4FF0B0428121D2F8E7
:104D7000903023F01803C2F89030D2F8003423F4B6
:104D8000C06343F40073C2F80034D2F8003403F473
:104D9000C0630193019B262308934FF48073CDE9F0
:104DA0000B130123109340230D93B022002308A876
:104DB000CDE91132139302F0FFFB08B172B6FEE7A2
:104DC0004F23CDE90230CDE90400CDE906000221F0
:104DD00002A802F08BFE08B172B6FEE71BB05DF8C8
:104DE00004FB000008B50A4B0A4A9A6062B601F05B
:104DF00045FCFFF7ABFFFFF72BFF00F070FDFEF760
:104E00006FFF0020FFF71EFE00F070FDFCE700BF03
:104E100000ED00E00030000872B6FEE770B5FF2339
:104E2000074D084E01441C46814202D143EA04204A
:104E300070BD10F8012B5A40AB5C6340B45CF3E7E3
:104E4000BDD20008BDD1000810B50446FEF798F9A0
:104E5000214682B2BDE810400148C82304F0B6BB29
:104E6000100B002030B521F003010E4D0346014424
:104E70004FF0FF308B4200D130BD9A785C7812043D
:104E800042EA04221C782243DC7842EA0462504061
:104E9000202200284FEA4000B8BF6840013AF8D10C
:104EA0000433E7E7B71DC1042DE9F04F3D2195B06C
:104EB00007F090FB044628B9784815B0BDE8F04FDC
:104EC000FFF7C2BF00210A22013007F023FB2C218B
:104ED0000546204607F07EFB0028EDD01022002179
:104EE000013007F017FB6B1EB3F5604F009002D244
:104EF00015F0030701D06A48DFE76A4E6A480123CC
:104F00004FF460413370FFF77DFE30B16748FFF723
:104F10009BFF377015B0BDE8F08F6548DFF894B19E
:104F2000FFF792FFBA463C46B846A5EB0809B9F12F
:104F3000F40F28BF4FF0F4095F484FF47A631FFA6B
:104F400089F20BEB040104F093FB019020B15B4864
:104F5000FFF77AFF002312E04C44B4F5006FC84419
:104F600019D30AF100604FF40062594600F5883009
:104F7000FFF76EFD28B15248FFF766FF019B3370C3
:104F8000C8E75049A4F500642246A1F500600AF57F
:104F9000006A07F0FDFA4C4A4346302108A807F0A2
:104FA000C3FA08A8FFF750FF4545BED8B4B1FF23A8
:104FB00014F007080ED10AF100603E49224600F5C0
:104FC0008830FFF745FD48B13D48FFF73DFF86F8C3
:104FD00000809FE70BF804300134E9E7302200211C
:104FE00008A807F0EFFADFF8D0800024642301223C
:104FF00004A9404604F03CFB90B99DF8102004F150
:105000005001631C0DEB01040A2A04F8302C0DD169
:105010002E4908A807F0EBFA044650B12C4897E750
:105020000137322FF4D823461C46DFE72F2BFBD164
:10503000EEE71D482946FFF715FF009B984204D074
:105040002448FFF701FF347064E7234B2348CDE980
:105050000435009B06934FF4006101230793FFF78B
:10506000D1FD08B11E4873E710221C480DEB020168
:10507000FFF7EEFC04460028F4D11A48FFF7E4FEDF
:10508000194A0394039B934202D901F0A7FC41E71C
:1050900000BF039B01330393F4E700BFBDD30008B7
:1050A000D0D30008580A002000100108E1D30008FE
:1050B000F3D3000864010020100B002000D4000886
:1050C00014D400086409002026D4000834D4000851
:1050D00040D400084FD400083143414D00F001088E
:1050E0005FD4000870D40008BF27090000B58DB058
:1050F0002C22002101A807F065FA1748174B03601E
:105100001F2383604FF080420023C0E90433C0E9CD
:10511000072383614FF48073436202F08DFF08B16F
:10512000FFF77AFE0C4803F0B3F808B1FFF774FEFE
:105130004FF0005300220793074808924FF4807302
:1051400001A9029206920B9302F0D6FF08B1FFF775
:1051500063FE0DB05DF804FB5C0A002000280040EF
:1051600010B5044690B03822002102A807F02AFAB0
:105170002268194B9A422CD14FF48033029302A833
:105180004FF480730F9302F0D5FD08B1FFF744FE92
:105190004FF0B0430220D3F8902042F40042C3F80D
:1051A00090209A6D42F480629A659B6D002203F410
:1051B000806311460193019B01F0BEFB022001F0C8
:1051C000EDFB00222A20114601F0B6FB2A2001F057
:1051D000E5FB10B010BD00BF002800407047000084
:1051E00008B501F06DFA044B0120C3F88800BDE852
:1051F000084002F0C1B800BF0004005801F067BACF
:1052000008B501F064FABDE8084000F0FFBA08B53F
:1052100001F056FABDE808400121002002F05CB818
:1052200070477047FEE7FEE7FEE7FEE7FEE77047E0
:105230007047704701F038BA014803F04FB800BF1B
:105240005C0A0020022002F033B80000014801F09F
:10525000AFBD00BFB00A002008B5402002F028F81A
:10526000BDE80840802002F023B80000014803F0A8
:10527000F9BB00BF100B0020014802F063BE00BF65
:105280005C0A0020014803F052BA00BF940A0020D3
:10529000054808B50823036003F066F818B1BDE8B7
:1052A0000840FFF7B9BD08BD940A00204FF0B04395
:1052B00007B55A6E42F001025A665B6E002203F097
:1052C0000103019311463220019B01F035FB32208E
:1052D00003B05DF804EB01F061BB00000CB407B54E
:1052E000054A05AB1021019306F0FCFE03B05DF802
:1052F00004EB02B0704700BF94D4000830B585B00D
:10530000044602A80D4606F07BFDBDF90C30064AA6
:1053100000931021029B2046FFF7E0FF2046FDF797
:105320002FFF288005B030BD94D400084FF0B04264
:1053300010B5936823F40043936006F087FD0A4B91
:1053400001241C7000F02CF806F012FB074806F050
:1053500029FB022006F02CFB06F024FC2146204607
:10536000BDE8104006F03EBCA00A0020FD52000837
:1053700006F04EBC0121022006F01EBC00210220D6
:1053800006F01ABC024B187808B100F069B87047F3
:10539000A00A002082B00190019802B000F0FCB891
:1053A00008B501F09BF901F0A1F9BDE8084001F052
:1053B000A5B900000B4A116810B5034609B90A499E
:1053C0001160106809490A4C0344091B8B4206D935
:1053D00007F024F90C2303604FF0FF3010BD136079
:1053E000FCE700BFA40A0020301500200040002088
:1053F00000080000014B1868704700BFA80A002091
:105400000320704708B501464FF47A7200238002EA
:10541000890DFEF73DFA08BD4FF47A73A0FB030334
:10542000800A40EA83507047034B98689A6890421C
:10543000FBD1C043704700BF0028004008B5FFF70C
:10544000F3FF014B186008BDA80A002008B5FFF75C
:10545000EBFF024B1B68C01A08BD00BFA80A002062
:10546000024B187808B1FFF7DFBF7047AC0A002085
:1054700010B5074B074C0122DA654FF480712046C6
:1054800002F026FD4FF0FF332363002010BD00BF64
:10549000002800405C0A002002460021014802F07A
:1054A0002EBF00BF5C0A002002460121014802F025
:1054B00026BF00BF5C0A002010B58CB02C22002152
:1054C000044601A807F07EF8FFF7D2FF0C4B0D4809
:1054D0001B681C440023089306934FF00053E443D9
:1054E000079301224FF4807301A902940B9302F0F9
:1054F00003FE08B1FFF790FC00200CB010BD00BF08
:10550000A80A00205C0A002038B50546FFF78CFF8A
:1055100002210446074802F0F9FEC4F309024FF4E1
:105520007A71A2FB0121920AA30A2A8043EA8050E1
:1055300038BD00BF5C0A00200148002102F0E6BE31
:105540005C0A00200148012102F0E0BE5C0A002054
:10555000F8B50F4D2E78CEB90E4C4FF0FF372763BC
:10556000FFF7C4FDFFF784FF4FF48071204602F07F
:10557000AFFC2046276302F06DFE32462046022132
:1055800002F0BDFEFFF75AFF01232B700020F8BD8B
:10559000AC0A00205C0A0020014610B54FF47A7274
:1055A00000238002890DFEF773F90146FFF73CFFE7
:1055B0000446FFF739FF031B8B4200D310BD00BF29
:1055C000F7E706F04BBD000010B5064C022120465F
:1055D00002F09CFE0221421C2046BDE8104002F071
:1055E0008EBE00BF5C0A00201648174A08B54FF46B
:1055F0006133C0E9002300230C22C0E90233C0E973
:105600000523C0E90733C0E90933036104F0CEF88C
:1056100008B1FFF701FC0B48002104F03EFA08B185
:10562000FFF7FAFB0748002104F057FA08B1FFF72B
:10563000F3FB044804F011FA18B1BDE80840FFF785
:10564000EBBB08BD100B00200044004070B596B0C5
:1056500006461422002103A806F0B4FF38220021D8
:1056600008A806F0AFFF3268284B9A424BD10223BC
:10567000089308A84FF440230A9302F05BFB08B19B
:10568000FFF7CAFB4FF0B04300259A6D204C42F45F
:1056900000329A659A6D02F400320292029ADA6C34
:1056A00042F00102DA64DB6C03F001030193019B19
:1056B0000C220223CDE903230323CDE9055303A9DB
:1056C00007234FF09040079301F0C6FC1149256273
:1056D0001423C4E900131023C4E9023520468023B3
:1056E000C4E90435C4E9065501F0ECF908B1FFF747
:1056F00093FB2520F46700220221A66201F01CF929
:10570000252001F04BF916B070BD00BF00440040E9
:10571000B00A00205800024002680C4B9A4210B5B3
:10572000044612D14FF0B0420C21936D23F40033A4
:1057300093654FF0904001F03BFDE06F01F034FACB
:10574000BDE81040252001F037B910BD00440040ED
:1057500008B50A460146024803F0E8F8002008BDF3
:10576000100B002013B5114B114C18604FF40013AF
:10577000009302AB13E90600204604F012F92368F7
:10578000DA69D103FCD4DA695202FCD59A68084878
:1057900042F480029A6004F04AF906490448012262
:1057A00004F0B8F8002002B010BD00BFA40B002028
:1057B000100B0020AC0B002008B5074B1860FFF75A
:1057C000C3F8FFF711FF054AD2F8803043F00063B9
:1057D000C2F88030002008BDA80B00200008005847
:1057E00008B54FF0B04308489A6B42F400329A6310
:1057F0009A6B22F400329A63FFF78EFF0F2001F0BC
:10580000DBF8002008BD00BF100B002008B50748DA
:1058100003F0CCFF08B1FFF7FFFA054801F052F999
:1058200018B1BDE80840FFF7F7BA08BD100B00201B
:10583000B00A00200268044B9A4203D1034B0020B7
:105840001B681847704700BF00440040A80B0020A9
:1058500002680B4B9A4210B504460FD1094B1B68E6
:105860002BB1D0F8902012B9074801219847204663
:105870000549BDE81040012204F04CB810BD00BF3E
:1058800000440040A40B0020AC0B00200D488546CE
:1058900000F0CDFE0C480D490D4A002302E0D4581B
:1058A000C4500433C4188C42F9D30A4A0A4C00236A
:1058B00001E013600432A242FBD306F0B5FEFFF70D
:1058C00091FAFEE700400020000000207C0000204C
:1058D000A0DC00087C0000202C150020FEE708B5A5
:1058E000FFF724FDBDE8084000F0ACBC4FF0FF30EE
:1058F00006F0F2B90E4B18684FF47A73584331280A
:1059000010B513D90B490B6883EA433383EA534339
:1059100083EA43130B603222B0FBF2F251000131F3
:10592000801AB3FBF1F401FB1433184410BD00BF1F
:1059300004000020EC0C002070B5194B1D889CB0B1
:105940000C460022A2420ED30022164B00931146B1
:10595000154B012006F076F8144B21469B6A03A8EC
:1059600098471CB070BD511CA142B8BF8618835C1B
:10597000BCBF767843EA0623A14202F17006B8BFA5
:1059800070316E4483EA0503B8BF694406F8643C8D
:1059900002F10202BCBF1B0A01F8643CD2B2D1E79B
:1059A00012000020F0D400084DD10008BCD9000836
:1059B000024B01200021187006F056B99F0C002000
:1059C000024B01200021187006F04EB9AD0C0020EA
:1059D00008B50122054B0021104606F033F8BDE85A
:1059E00008400021012006F03FB900BF06D500089D
:1059F000014806F0E1BA00BFF40C00202DE9F047A1
:105A00006E4B1A7894B0B2B100246D481C7006F049
:105A100085FAFFF76FFF0146694806F007FB684803
:105A200006F0CAFA674B1B6800932246664B214674
:105A3000022006F007F8654B1A7802F0FF01AAB1C0
:105A400000221A70624B1B78C3F1030311460093C6
:105A50000220604B05F0F6FFFEF76EFE5E4B5F48DE
:105A6000197814B0BDE8F047FFF766BF5C4B5D4C9A
:105A70001A7822B15C4A19700123237013705B4BB2
:105A80001A788AB100221A7023780BB90123237087
:105A90004B4806F043FAFFF72DFF0146484806F051
:105AA000C5FA474806F088FA514B1A783AB10022F5
:105AB0001A7023781BB94F4A01232370137023787F
:105AC000002B69D02378DFF82081DFF828A1DFF8E8
:105AD0002891013BDBB2237098F800203C4B002A50
:105AE0005DD00322402145481A7001F0D5FB431ECA
:105AF0005842434E434F5841308033883A680092B1
:105B000002AC414A9BB24621204606F00DFD002220
:105B100011463E4B0094012005F094FF06F0BAF9BF
:105B20004FF47A73B0FBF3F5394B2C4C1B78237090
:105B30000B236370FEF764FE0023E3702B0C2371CC
:105B40002B0A99F8002063719AF80030A070134373
:105B5000A57130D198F80030003B18BF0123DB015C
:105B6000E37133881D48C3F30723237233886372BC
:105B70003B681B0AA3720C213B68E372FFF74EF9E6
:105B8000154B2073000A60730E241C70FEF7D4FDC1
:105B900012482146FFF7D0FE14B0BDE8F08799F80F
:105BA000002032B19AF80020002A14BF01220322FB
:105BB00098E7012296E78023D2E700BFAB0C0020D4
:105BC000B00C00200400002014D50008A10C002017
:105BD000A20C002034D50008A00C0020AD0B002042
:105BE000E80C0020AC0C0020A80C0020AD0C00201C
:105BF000AA0C0020A90C0020A30C002000040048DF
:105C0000EA0C0020E40C002041D500086BD5000808
:105C10001000002013B50D4B1B7803F0FF0443B1B7
:105C20000B4B5B6B01934FF4FA6002B0BDE8104080
:105C3000184701222146074B104605F003FF214675
:105C4000012002B0BDE8104006F00EB8A40C002000
:105C5000BCD900086ED5000870B51C4B1A7802F04C
:105C6000FF0462B31A4A1B4900241C701378CD6AE2
:105C7000012B0DD91378013BDBB21370164B0126B3
:105C80001E70A847BDE870400021012005F0ECBF60
:105C9000124B14701A7832B11C702246104B2146F8
:105CA000022005F0CFFE0F4B1A78002AE9D000221F
:105CB0001A7011460C4B022005F0C4FEE1E70122E8
:105CC0000A4B2146104605F0BDFEDBE7A40C002080
:105CD000A20C0020BCD90008A10C0020A90C0020B7
:105CE0007AD50008A80C002083D500088FD50008BD
:105CF0002DE9F043624D98462B7889B006460C4654
:105D0000174603F0FF09002B64D007291BD15D4B18
:105D100006A91C8801220846771E072ABB5C1CBF07
:105D200016F802C043EA0C236340072A0B7010D117
:105D30000521BDF81D40FFF771F8534B9DF8182061
:105D40001B789A420AD0514B4FF4FA605B6B98472C
:105D50003DE01B0A4B7002320231DEE79DF819303C
:105D6000AC2BF0D18442EED1494B00221A70494B42
:105D7000197829B11A701146474B022005F062FECE
:105D8000464B1A78D2B14648BDF81A1000221A7054
:105D9000038801339BB2C9BA03809DF91C000491AA
:105DA00040490590097803910B200121CDE90110AC
:105DB000009311463C4B022005F044FE334B002477
:105DC000DB6A2C7098472146012005F04DFF09B091
:105DD000BDE8F0830122354B4946104605F032FEFE
:105DE0000122334B49461046CDE9007805F02AFEE2
:105DF000304B314883F80080DE22494606F0E2FB52
:105E00002E4BDE2C1C8004D82B482246314606F04F
:105E100031FC2B4B284D1F7001222A4B009400218E
:105E2000104605F00FFE0122274B284E284F002177
:105E3000104605F007FE002415F8013B00930022F0
:105E400033461146012005F0FDFD04F00F030F2B32
:105E500005D100223B461146012005F0F3FD013437
:105E6000402CE9D100221146194B012005F0EAFD32
:105E70000021012009B0BDE8F04305F0F5BE00BFE8
:105E8000A40C00201200002010000020BCD9000843
:105E9000A20C0020A80C00209DD50008A90C002011
:105EA000A60C002008000020AED50008CDD50008C3
:105EB000D8D500080C0D0020EE0D00200E0D00209E
:105EC0000D0D0020FAD500080ED6000821D60008D6
:105ED0000BD600087FB5FEF781FC0646FEF790FC66
:105EE00005463046FDF78EFC0446FDF75BFA014699
:105EF0003046FDF7A1F90E49FDF7A8FA4FF07C51A5
:105F0000FDF79CF9FDF77EFC00236328C4BF18460B
:105F10000134642DA8BF64250022CDE90105039357
:105F20000094044B1146012005F08CFD04B070BDB7
:105F30000000C84224D6000837B5194B194C1B780D
:105F40001BBB23780BBB184B1868FDF727FAFEF72D
:105F5000FBFBFFF7BFFF154A23781278144C13435D
:105F600004D1144B1B7803F0FF0583B1124B0122BF
:105F70004FF080401A70FEF7C9FC636B01934FF439
:105F8000FA6003B0BDE8304018470020DFE7E36A5D
:105F900098472946012003B0BDE8304005F064BEB3
:105FA000AC0C0020A90C002004000020A30C002051
:105FB000BCD90008A80C0020A40C002037B51C4B4D
:105FC0001B780446002B31D002280BD1FDF73AFF95
:105FD00000224FF480714FF0904003B0BDE8304094
:105FE00001F060B9402821D10A20FFF7D3F92146FA
:105FF000104801F051F9431E5C425C4100220E4BF7
:10600000009411460546022005F01CFD0B4A13784A
:10601000A3420BD00A4B147001211C80094B8D4206
:1060200019701FBF08490B6801330B6003B030BD06
:10603000C80C00200004004847D6000800000020DB
:10604000EA0C0020E80C0020E40C002010B50B4BFB
:106050000B4A1B88126894B002AC00929BB2094AAA
:106060004621204606F060FA0022074B00941146B4
:10607000012005F0E7FC14B010BD00BFEA0C0020C1
:10608000E40C002041D500086BD5000800B5114B89
:10609000D3F88025D3F8843589B0D1B20791C2F303
:1060A00007210691C2F30741120E0492DAB203925D
:1060B000C3F307220292C3F3074201921B0E002290
:1060C000059100931146044B022005F0BBFC09B07A
:1060D0005DF804FB0070FF1F58D60008042807D89D
:1060E000072905D8034B01EBC00153F82100704785
:1060F00000207047C0D70008F7B56020FDF782FD8B
:10610000C0B2431E772B454F6ED838701820FDF76C
:1061100079FDC0B20528424C6CD8207023786420E9
:10612000C3F10C032370FDF76DFDC6B20820FDF727
:1061300069FD072EC5B204D900216420FDF782FD58
:1061400000263C780F23013C94FBF3F4E4B2A64212
:1061500003D021466420FDF775FD052D10D90321DC
:106160000820FDF76FFD41210C20FDF76BFD00219C
:106170001420FDF767FD00211C20FDF763FD0325BA
:1061800021462846FFF7AAFF264B18601C20FDF782
:1061900039FD254A254B012808BF1346244A14BF60
:1061A0000021012111700022114600930220214B91
:1061B00005F048FC0420FDF735FD1F4B421F9A42B5
:1061C0001E4B1DD818606C20FDF72CFD80B2431EBD
:1061D0009BB24FF6FD729342194B18D8188003B04A
:1061E000BDE8F040FEF730BB012160203970FDF7BB
:1061F00029FD8BE7052118202170FDF723FD8DE790
:106200004FF4967104201960FDF734FDDBE740F28E
:1062100057416C201980FDF72DFDE0E710000020AC
:10622000080000200C0000208FD60008A5D600082A
:10623000A30C0020A9D600087B5101000400002017
:10624000120000202DE9F04F8DB0FEF701FD602017
:10625000FDF7D8FC00228A4B00901146022005F081
:10626000F1FB01224FF480714FF0904001F01AF8D9
:106270004FF44870FFF78EF800224FF480714FF012
:10628000904001F00FF84FF49670FFF783F8012269
:106290004FF480714FF0904001F004F84FF44870D3
:1062A000FFF778F800224FF480714FF0904000F033
:1062B000F9FF00220024012511464FF0050B714B18
:1062C000714EDFF8C891724F022005F0BBFB2246E9
:1062D0002146CDE901B46F4B0095022005F0B2FBD9
:1062E000032322462146CDE9005302956A4B022042
:1062F00005F0A8FBFFF7CAFE2246C821674B0094B1
:10630000674805F0ADFD664805F056FE6548664BEA
:106310000360664B8360664B4360664BC360664BAD
:10632000036133689847736998469847800DC9F8A8
:106330000000FFF7E1FEF3683868984722462146DF
:106340005E4B022005F07EFB224621465C4B02207C
:1063500005F078FB3B68009322462146594B5A4F83
:10636000022005F06FFB7D23009322462146574B08
:10637000022005F067FB3B78009322462146544BF0
:10638000022005F05FFB534B1B88009322462146F9
:10639000514B022005F056FB504B1B6800932246E0
:1063A00021464F4B022005F04DFB22462146434B30
:1063B000022005F047FB4FF0080A47F23053CDE9C1
:1063C0000743CDE90544CDE90345CDE9015A3B78C2
:1063D0000093F3690B93DDF82CC023462246284630
:1063E0001621E047CDE90845CDE90644CDE904454D
:1063F000CDE902B4CDE9004AB3690B933A780B9F1B
:106400002B4621462846B847736D2846DE2198471B
:106410002146DE22334806F0D5F8D9F80030009343
:1064200022462146304B284605F00CFBF36A98477C
:10643000214628462D4A05F0D3FC2A464FF4FA613E
:106440002B4B00942B4805F00BFD2A4805F0B4FDBA
:10645000C047294B002808BF4FF0A5301860FFF750
:1064600049FA264B009401462A46254805F0F8FCD7
:10647000234805F0A1FD234B1D700DB0BDE8F08F42
:10648000BBD60008C7D60008BCD90008F00C002015
:106490000C000020DFD6000800D70008F1590008E2
:1064A000F40C0020CC0E0020395F0008F15C0008DD
:1064B000D1590008595C0008155C000821D7000874
:1064C00033D7000841D700080800002056D700083D
:1064D0006CD700081200002080D7000804000020BC
:1064E00092D70008100D0020A8D70008FD59000819
:1064F000B1590008CC0C0020EC0C0020C159000858
:10650000B00C0020C80C002000F00AB800F04AB817
:1065100000F082B800F082B800F082B800F082B8D3
:106520002DE9F04186B000244FF0B0430594DA6CB9
:106530001B4D42F00402DA64DB6C039403F00403A5
:106540000093009B10270123CDE9017301A90323C8
:10655000284604934FF4005800F07EFD01A9284618
:106560008026CDF8048000F077FD01A94FF090401F
:10657000019600F071FD22464146284600F092FE49
:1065800022463946284600F08DFE224631464FF01D
:10659000904000F087FE204606B0BDE8F08100BFC5
:1065A0000008004808B5032814D8DFE800F00215F9
:1065B0001D2A002280214FF0904000F073FE00223F
:1065C0001448102100F06EFE002212484FF40051D2
:1065D00000F068FE002008BD012280214FF09040AD
:1065E00000F060FE0122EBE7012280214FF0904095
:1065F00000F058FE01220748102100F053FE01224E
:10660000E3E7012280214FF0904000F04BFE002292
:10661000F1E700BF000800480220704701207047E2
:1066200001207047002814BF16200F2070477047C4
:1066300038B5104C237805460BB9012038BD00F061
:10664000ABFF22784FF47A73B3FBF2F3B0FBF3F0B5
:1066500000F0D6F904460028EFD10F2DEDD8024600
:1066600029464FF0FF3000F067F9034B20461D60CC
:10667000E4E700BF180000201C00002010B5032034
:1066800000F048F900F088FF064B18600F20FFF774
:10669000CFFF044618B9FEF7C4FD204610BD012403
:1066A000FBE700BF14000020034A044B11681B786D
:1066B0000B441360704700BFE80E00201800002054
:1066C0004FF0E022136923F00203136170474FF08B
:1066D000E022136943F0020313617047024A5368D2
:1066E00023F0010353607047002004E0024A53681E
:1066F00023F0020353607047002004E0024A53680D
:1067000023F0040353607047002004E08068C0F366
:1067100080007047F7B5002301930446002800F07D
:10672000E980856D25B9FDF703FBE56584F85450D4
:1067300023689A68D00040F1A1809A68D10000F1E6
:10674000B480A26D42F01002A265E26D42F0010237
:10675000E26501251846FFF7D9FFA26D02F010028D
:10676000024340F0C980A26D206922F4817242F098
:106770000202A2659A68D2075DD4226BA67E94F8C5
:106780002CC0003A18BF01221703D4E902120A43B1
:10679000217E42EA8132617E42EAC13242EA4632D9
:1067A000002842EA4C02B4BF20F000414FF400112F
:1067B0003A430A4394F82010012903D1002E76D1E0
:1067C00042F48032616A21B1A66A01F4E07131437A
:1067D0000A43D968E66C21F4FE3121F4FF711143BC
:1067E000D96094F83C206168012A01F0404C4CEAE1
:1067F000060609D1D4E910273A433243A66C324346
:1068000042EA0C0242F001061F693E4A3A40324316
:106810001A6121F00042B2F1804F0CD0B1F1004F6B
:1068200009D0394ED6F8082701F4701122F47012FD
:106830000A43C6F808275A69666BA16B22F0070263
:1068400032435A615A6922F0700242EA01125A61D7
:10685000002835D19A6A62F00F029A625B6903F0F0
:1068600007039E423CD10023E365A36D23F003039D
:1068700043F00103A365284603B0F0BD9A6823499D
:1068800022F0104222F0170242F080529A60204A11
:106890001268B2FBF1F2013252000192019A002A11
:1068A0003FF44BAF019A013AF7E7002552E7A16D9B
:1068B00041F02001A165E16D41F00101E16581E751
:1068C000B0F5001FCAD19A6AE269013A92006FF0EE
:1068D0000F0102F01C0201FA02F2216E0A43BCE72A
:1068E000A36D23F0120343F01003A365E36D43F09F
:1068F0000103E3650125BEE7A36D43F01003A36523
:10690000F8E700BF02FCFF1F00200140400D03001C
:10691000140000200749CA6822F4E062030212044E
:1069200003F4E063120C134343F0BF6343F40033FA
:10693000CB60704700ED00E0164B30B5DC68C4F367
:106940000224C4F10703251D042B28BF0423062DB0
:106950004FF0FF358CBF033C002405FA03F321EA16
:106960000303A54022EA0502A340002843EA0203EC
:10697000ACBF00F16040084A4FEA0313B8BF00F013
:106980000F00DBB2AABF00F56140135480F800335A
:1069900030BD00BF00ED00E014ED00E0002807DB93
:1069A000044A4109012300F01F00834042F82130CE
:1069B000704700BF00E100E000280CDB43090649F6
:1069C00000F01F0020330122824041F82320BFF352
:1069D0004F8FBFF36F8F704700E100E0BFF34F8F21
:1069E0000549064BCA6802F4E0621343CB60BFF36B
:1069F0004F8F00BFFDE700BF00ED00E00400FA0587
:106A00000138B0F1807F0BD24FF0E023054A586186
:106A1000F02182F823100020072298611A61704744
:106A20000120704700ED00E0002808DB430904491D
:106A300000F01F0001226033824041F8232070479C
:106A400000E100E070B5D0E913456560446D14B114
:106A5000D0E916456560D0E9105404F01C06012405
:106A6000B4406C60046863608368102B0BBFA26045
:106A7000A160E160E26070BD0268416CD3B210B504
:106A8000083B1424B3FBF4F30B4CA24288BF0B4A1F
:106A900021F0030199BF01F1804202F50232521840
:106AA00007338264064AC26403F01F03012202FA1C
:106AB00003F3036510BD00BF070402401C08024039
:106AC0008008024038B500285CD002682E4B9A42FC
:106AD0004FF014014AD82D4B1344B3FBF1F32C496A
:106AE0009B00C0E91013022380F825301368056964
:106AF00023F4FF4323F070031360D0E902432343E0
:106B00002B43456911682B4385692B43C5692B438A
:106B1000056A2B430B431360FFF7AEFFB4F5804FBC
:106B200004BF002343604368816C03F07F020A6066
:106B3000D0E91314013B032B4C601ED8154B1649AA
:106B4000816513449B000121013A01FA02F2002100
:106B50004365C2651960114B5A6400230122C36367
:106B600080F8243080F82520184638BD0C4B13449B
:106B7000B3FBF1F30B499B00B3E70023C0E91533E6
:106B8000C365EAE70120F0E707040240F8FFFDBF14
:106B9000000002403F82001040090240000902400C
:106BA000F8FBFDBF0004024038B5002841D0026860
:106BB000136823F0010313601F4B9A424FF0140136
:106BC00030D81E4B1344B3FBF1F31D499B00C0E9C1
:106BD0001013012403F01C0304FA03F300251560CD
:106BE0004B60FFF749FF836C41681D60D0E91332A9
:106BF0005A604A1E032A06D8124B0B449B0094404D
:106C00001D60114B5C640023C363C0E91533C0E908
:106C10000B33C0E90D33C36580F8253080F824308C
:106C2000184638BD094B1344B3FBF1F308499B00E8
:106C3000CDE70120F5E700BF07040240F8FFFDBFE4
:106C4000000002403F82001000090240F8FBFDBF37
:106C50000004024070B590F82450012D04463BD04A
:106C600090F825600125AE4280F824504FF00006D0
:106C70002CD1022580F825500568C6632E6826F0C1
:106C800001062E60FFF7DEFE036BBBB12B6843F0FD
:106C90000E032B60A36C1A68D20342BF1A6842F439
:106CA00080721A60636D1BB11A6842F480721A60B8
:106CB0002B6843F001032B60002070BD2B6823F08C
:106CC00004032B602B6843F00A03E2E78023C363CD
:106CD00080F824602846F0E70220EEE7034640B142
:106CE00090F82520022A06D00422C263002280F8F0
:106CF0002420012070470268806C116821F00E0189
:106D00001160016821F480710160116821F00101B6
:106D10001160D3E9100202F01C0101228A40426096
:106D2000D3E9132151605A6D32B1116821F4807199
:106D30001160D3E9162151600122002083F825203B
:106D400083F82400704708B590F82530022B03D053
:106D50000423C363012008BD03681A6822F00E02F1
:106D60001A601A6822F001021A60826C136823F418
:106D700080731360D0E9101303F01C0201239340C9
:106D80004B60D0E913325A60436D33B11A6822F474
:106D900080721A60D0E916325A60012380F82530DB
:106DA000002380F82430836B03B198470020D2E79A
:106DB00070B4426C046C036826681D6802F01C0203
:106DC0000421914031420FD015F0040F0CD01A6805
:106DD00092065EBF1A6822F004021A60036B6160BB
:106DE000002B33D070BC184702219140314217D09C
:106DF00015F0020F14D01A68940606D41A6822F00F
:106E00000A021A60012280F82520114A93428CBFA1
:106E1000104B114B5960002380F82430C36ADFE720
:106E200008219140314211D029070FD5196821F06E
:106E30000E011960012303FA02F26260C36380F855
:106E40002530002380F82430436BC9E770BC7047BD
:106E50008000024000040240000002400A4A5369D8
:106E600043F4802330B55361EFF3108472B60023EE
:106E7000CD58C5500433B3F5807FF9D11369DB03D6
:106E8000FCD484F3108830BD00400058064B5A698A
:106E9000002ABFBF054A9A6002F188329A60BABFE1
:106EA0005869C00F00207047004000582301674513
:106EB000044B5A6942F000425A615869C043C00FFE
:106EC000704700BF00400058014B5868704700BF32
:106ED000EC0E002070B50546FEF754FA124E04463B
:106EE0003369D90313D43369DA0744BF012232610D
:106EF0004CF2FA32134011D10B4E306910F480205D
:106F00000BD0FEF73FFA001BA842F6D304E0FEF7D1
:106F100039FA001BA842E3D3032070BD024A136173
:106F2000024A01205360F8E700400058EC0E0020B0
:106F30002DE9F041184D98462B78012B06460C465A
:106F4000174626D001232B704FF47A7000236B6014
:106F5000FFF7C0FFA0B9012E16D1104A536943F0C4
:106F6000010353612760BFF36F8FC4F804804FF4AF
:106F70007A70FFF7AFFF094A536923EA06035361AA
:106F800000232B70BDE8F08139462046FFF766FFED
:106F9000EDE70220F6E700BFEC0E002000400058AD
:106FA000054A536923F47E7343EAC00040F48030FD
:106FB00040F0020050617047004000582DE9F04158
:106FC000234F3B78012B054688463FD001233B7079
:106FD0004FF47A7000237B60FFF77CFF044688B98A
:106FE0002B68042B13D11B4A536943F4803343F0BD
:106FF000040353614FF47A70FFF76CFF0446154B9E
:107000001A681B6800233B702046BDE8F0814FF0F2
:10701000FF33C8F800306E68D5E901321344B3423B
:107020000AD93046FFF7BCFF4FF47A70FFF752FFE2
:1070300050B1C8F800600446064A536923F47E73D1
:1070400023F002035361DAE70136E5E70224DBE7C8
:10705000EC0E0020004000582DE9F04F524C002368
:107060004FF00F090A6832FA03F501D1BDE8F08F3D
:10707000012505FA03F818EA020200F08E804E6836
:10708000032706F003054FEA430E07FA0EFC6F1EB6
:10709000012F6FEA0C0C32D8876807EA0C0ACF6818
:1070A00007FA0EF747EA0A078760476827EA0808E1
:1070B000C6F300179F4047EA08074760C76807EA1A
:1070C0000C088F6807FA0EF747EA0807022DC76019
:1070D00017D14FEAD30800EB880803F0070AD8F865
:1070E00020704FEA8A0A09FA0AFB27EA0B0B0F699C
:1070F00007FA0AF747EA0B07C8F8207001E0032DEA
:10710000DCD1076805FA0EF507EA0C073D4316F4D3
:10711000403F056041D023F0030707F1804707F5A2
:10712000803703F0030CBD684FEA8C0C4FF0070E5C
:107130000EFA0CFEB0F1904F25EA0E0E2FD01B4D2B
:10714000A8422ED005F58065A84214BF0725022568
:1071500005FA0CF545EA0E05BD602568D74316F41F
:10716000801F0CBF3D4015432560656816F4001F65
:107170000CBF3D4015436560D4F8805016F4803F45
:107180000CBF3D401543C4F88050D4F88450B6037A
:1071900054BF3D401543C4F88450013362E70025D5
:1071A000D6E70125D4E700BF0008005800040048D6
:1071B000374A2DE9F04F00234FF0010A4FF0070B3B
:1071C0004FF00F0931FA03F401D1BDE8F08F0AFA4C
:1071D00003FC1CEA010654D023F0030404F18044AC
:1071E00004F5803403F00307A568BF000BFA07F825
:1071F000B0F1904F08EA050E45D0264DA84244D084
:1072000005F58065A8420CBF02250725BD407545E0
:1072100017D1D2F8805025EA0605C2F88050D2F87E
:10722000845025EA0605C2F88450156825EA06054B
:107230001560556825EA06055560A56825EA080524
:10724000A560056803265C0006FA04F423FA06F636
:10725000254300EB8606056003F00705376AAD009D
:1072600009FA05F527EA05073762856825EA040566
:107270008560456825EA0C054560C56825EA040473
:10728000C46001339EE70025C0E70125BEE700BFCB
:1072900000080058000400480369194214BF012087
:1072A000002070470AB18161704781627047000019
:1072B000044AD168014208B502D0D060FEF77EFED4
:1072C00008BD00BF00080058024A136843F48073E9
:1072D00013607047000400580D4B10B55B690C46F5
:1072E00028B99A0507D500F027F820B110BD9B05F5
:1072F00001D400F019F8074A1369012C23F00403A4
:10730000136101D130BFF1E740BF20BF20BFEDE7DF
:107310000004005800ED00E0024B186800F4C06063
:10732000704700BF00040058024A136843F48043CA
:1073300013607047000400580C4A136823F480431C
:1073400013600B4B1B6832214B430A49B3FBF1F32B
:107350005169890500D533B9536913F4007F14BF0F
:10736000032000207047013BF2E700BF00040058F3
:107370001400002040420F000B4A136823F007035B
:1073800043F002031360094B1A69012842F004021A
:107390001A6105D130BF1A6922F004021A617047E0
:1073A00040BF20BF20BFF6E70004005800ED00E01A
:1073B0004FF0B0431868C0F3404070474FF0B043FF
:1073C0001868C0F3400070474FF0B042536823F490
:1073D0007F4343EA0023536070474FF0B04318687F
:1073E000C0F34060704700007FB54FF0B0432C4AB7
:1073F000D3F80831C0F3031003F00F0352F8204014
:10740000284A52F82330B4FBF3F4FFF785FF264BEC
:10741000054693E80700B5F5007F04AB03E90700D4
:1074200010D0224B9C4218D303F5B70303F67F53C9
:107430009C4229D903F5741303F510639C4225D8A7
:1074400002230BE01A4B9C4207D91A4B9C421BD9D2
:1074500003F5370303F5D853F0E7002304AA02EB42
:10746000830353F80C4C144D2B6823F0070323437C
:107470002B60FDF787FF06462B6803F007039C424D
:1074800006D1002004B070BD0123E7E70024EAE73D
:10749000FDF778FF801B0228EED90320F2E700BF3A
:1074A00060D80008C0D80008F0CE0008C0CF6A003D
:1074B000BFEA21013F933402004000584FF0B0432F
:1074C00010B59A68D96812F00C0205D00C2A4AD17E
:1074D00001F00303012B51D14FF0B0412B480B6851
:1074E00013F0080306D00B6813F0080337D1D1F866
:1074F000941007E00C68240756BFD1F8943009684F
:10750000C3F3032350F82330002A0CBF1846002091
:107510004FF0B0418A6802F00C020C2A1ED1CA68F2
:1075200002F00302022A2ED0032A06D10B68184A61
:1075300013F4801F174B18BF13464FF0B042D068AA
:10754000D168D268C0F306205843C1F30213013357
:10755000B0FBF3F0530F0133B0FBF3F010BD0B6839
:10756000C3F30313CEE7042A05D0082A06D11B680B
:1075700013F4801305D006480023C9E700231846FA
:10758000C6E70448C4E7024BD7E700BF60D800084D
:107590000024F4000048E80108B5FFF78FFF4FF022
:1075A000B043044A9B68C3F3031352F82330B0FB83
:1075B000F3F008BDC0D800082DE9F04104460028CA
:1075C00053D04FF0B0439D68DE6803689B0605F01A
:1075D0000C0506F0030668D5026A1DB10C2D46D1D4
:1075E000012E44D1002A40D04FF0B043A16A1A685E
:1075F000170756BFD3F894301B681B0903F0F0033C
:1076000099421FD90846FFF7EFFE00282DD14FF011
:10761000B042136843F0080313601368A16A23F0B3
:10762000F0030B431360606AFFF7CEFEFFF7B4FF71
:10763000AB4B1860AB4B1868FEF7FAFF002834D04C
:10764000BDE8F0814FF0B042136843F008031360C7
:10765000136823F0F0030B431360606AFFF7B4FE76
:107660000846FFF7C1FE0028E0D00120E8E74FF010
:10767000B043002A54D01A6842F001021A60FDF7A4
:1076800081FE0746FFF79AFE002842D04FF0B04235
:10769000136843F0080313601368A16A23F0F00332
:1076A0000B431360606AFFF78FFE2368D80748D446
:1076B0002368990700F18C8023681E0740F1FA8047
:1076C000A3694FF0B046002B00F0E180D6F894306B
:1076D000E16903F01002914200F0C48003F003025C
:1076E000022AC2D0D80740F1B380D6F8943023F0F4
:1076F0000103C6F89430FDF745FE0746D6F89430EE
:10770000990740F1A580FDF73DFEC31B112BF5D96C
:1077100004E0FDF737FEC01B0228B3D903208FE732
:107720001A6822F001021A60FDF72CFE0746FFF7E7
:1077300045FE0028B9D0FDF725FEC01B0228F6D96A
:10774000ECE7082D03D00C2D05D1032E03D163687F
:10775000002BADD189E74FF0B043A1681A6822F43D
:1077600080120A431A606268B2F5803F10D11A682D
:1077700042F480321A60FDF705FE0746FFF718FE57
:10778000002895D1FDF7FEFDC01B6428F6D9C5E79A
:10779000B2F5041F04D11A6842F400121A60E6E739
:1077A000196821F480311960196821F400111960F9
:1077B000002AE0D1FDF7E6FD0746FFF7F9FD0028B6
:1077C0003FF476AFFDF7DEFDC01B6428F5D9A5E7D1
:1077D000042D236903D00C2D0ED1022E0CD1002BC9
:1077E0003FF443AF4FF0B0426169536823F0FE436A
:1077F00043EA016353605FE74FF0B046BBB13368C3
:1078000043F480733360FDF7BDFD074633685A05C6
:1078100005D4FDF7B7FDC31B022BF7D97EE77368CC
:10782000626923F0FE4343EA0263736044E733680E
:1078300023F480733360FDF7A5FD074633685B05CD
:107840007FF53AAFFDF79EFDC31B022BF6D965E726
:107850004FF0B042E169D2F8943023F010030B43AB
:10786000C2F894304FF0B047D7F8943043F001039A
:10787000C7F89430FDF786FD0646D7F894309A078E
:1078800018D4FDF77FFD831B112BF6D946E7D6F8F8
:10789000943023F00103C6F89430FDF773FD0746DA
:1078A000D6F894309B0705D5FDF76CFDC31B112B53
:1078B000F6D933E72368580754D50B4F3B68D905F1
:1078C00014D4FFF701FDFDF75DFD06463B68DA05C0
:1078D0000CD4FDF757FD831B022BF7D91EE700BF21
:1078E000140000201C00002000040058E3684FF042
:1078F000B046002B58D023F08003052B02BFD6F8EA
:10790000903043F00403C6F890304FF0B046FDF7D6
:1079100039FDD6F8903043F001030746C6F89030A1
:1079200041F28838D6F890309B0705D4FDF72AFD40
:10793000C31B4345F6D9F1E6E36823F00403812B2A
:107940001BD1FDF71FFDD6F8903043F08003C6F839
:10795000903007464FF0B04641F28838D6F8903064
:10796000180504D5E36A002B4AD1002068E6FDF72C
:1079700009FDC01B4045F1D9D0E6FDF703FDD6F85F
:10798000903023F08003C6F8903007464FF0B046A1
:1079900041F28838D6F890301905E3D5FDF7F2FCAE
:1079A000C01B4045F6D9B9E6FDF7ECFCD6F890309F
:1079B00023F080030746C6F8903041F28838D6F8A5
:1079C00090301A0516D4FDF7DDFCD6F8903023F080
:1079D0000103C6F8903007464FF0B04841F28836B0
:1079E000D8F890309B07BDD5FDF7CCFCC31BB34244
:1079F000F6D993E6FDF7C6FCC01B4045DFD98DE6FE
:107A00000C2D4ED0022B4FF0B0431A6822F080723A
:107A10001A6033D1FDF7B6FC0546FFF7DEFC38BB34
:107A2000D4E90C314FF0B0420B43D0682D490140EE
:107A30000B43E16B0B43216C0B43616C0B43A16B5C
:107A400043EA0123D360136843F080731360D36863
:107A500043F08053D360FDF795FC0446FFF7BDFC6F
:107A6000002882D1FDF78EFC001B0A28F6D955E6C6
:107A7000FDF788FC401B0A28CFD94FE6FDF782FCB2
:107A80000446FFF7AAFC30B94FF0B042164BD1685C
:107A90000B40D36069E7FDF775FC001B0A28F0D99D
:107AA0003CE6012B3FF4E1AD4FF0B043D868236BC7
:107AB00000F003029A427FF4D8AD626B00F07003CD
:107AC00093427FF4D2ADA26B00F4FE43B3EB022FDE
:107AD0007FF4CBAD636C00F06040C01A18BF01208A
:107AE000AEE500BF8C80C111FCFFFEEE2DE9F04138
:107AF0000D46044610B90120BDE8F081684E336898
:107B000003F007038B4216D323689A0727D54FF05B
:107B1000B047A268BB6823F0F0031343BB60FDF7D6
:107B200031FC0646BB68DB0319D4FDF72BFC831B35
:107B3000022BF7D911E0336823F007030B433360BE
:107B4000FDF720FC0746336803F00703AB42DBD0A8
:107B5000FDF718FCC01B0228F5D90320CCE72368E9
:107B6000580617D54FF0B0476269D7F8083123F0AF
:107B70000F0343EA1213C7F80831FDF703FC06466A
:107B8000D7F80831D90305D4FDF7FCFB831B022B82
:107B9000F6D9E2E723685A0713D54FF0B047E268F9
:107BA000BB6823F4E0631343BB60FDF7EBFB0646C1
:107BB000BB689B0305D4FDF7E5FB831B022BF7D9BC
:107BC000CBE72368180714D54FF0B0472269BB688C
:107BD00023F4605343EAC203BB60FDF7D3FB0646C0
:107BE000BB68590305D4FDF7CDFB831B022BF7D9E6
:107BF000B3E72368DA070FD4294C236803F007039F
:107C0000AB4239D8FFF7C8FC264B1860264BBDE8BD
:107C1000F0411868FEF70CBD6268022A1DD1FFF71B
:107C2000C7FB00283FF467AF4FF0B04641F28838F9
:107C3000B36823F003031343B360FDF7A3FB0746C8
:107C4000B368626803F00C03B3EB820FD4D0FDF786
:107C500099FBC01B4045F3D97FE7032A02D1FFF708
:107C6000BCFBDEE712B9FFF7A9FBDAE74FF0B04340
:107C70001B685B05D8D43EE7236823F007032B433A
:107C80002360FDF77FFB0646236803F00703AB4242
:107C9000B8D0FDF777FB801B0228F5D95DE700BF60
:107CA00000400058140000201C00002008B5FFF719
:107CB00073FC4FF0B043044A9B68C3F3022352F8AD
:107CC0002330D84008BD00BFA0D8000808B5FFF792
:107CD00063FC4FF0B043044A9B68C3F3C22352F8DD
:107CE0002330D84008BD00BFA0D800084FF0B043F3
:107CF000D3F89000C0F3400070474FF0B041020944
:107D0000D1F8883002F47F22000123EA020300F454
:107D10007F200343C1F8883070474FF0B041020C18
:107D2000D1F88830120423EA020343EA0040C1F884
:107D3000880070470368DA0370B5044639D5FFF749
:107D4000C3FAFDF71FFB614E05463368DB0532D5EC
:107D50004FF0B043616BD3F8902002F4407291422F
:107D60001DD0D3F89010D3F8902042F48032C3F89D
:107D70009020D3F8902021F4407022F480328D07B7
:107D8000C3F89020C3F8900009D5FDF7FBFA41F243
:107D900088360546FFF7AAFF012840F090804FF093
:107DA000B042616BD2F8903023F440730B43C2F8B9
:107DB0009030002605E0FDF7E5FA401B0228C4D903
:107DC00003262568E8070AD54FF0B0416268D1F86C
:107DD000883023EA124392B21343C1F88830A907CE
:107DE0000AD54FF0B041A268D1F8883023EA124397
:107DF00092B21343C1F88830AA0609D54FF0B042B9
:107E00002169D2F8883023F440630B43C2F88830EC
:107E1000AB0502D5206AFFF780FF680502D5606ACE
:107E2000FFF77BFF290502D5A06AFFF776FF6A06F8
:107E300002D56069FFF761FF2B0602D5A069FFF745
:107E40005CFFE80502D5E069FFF757FFE90610D5AA
:107E50004FF0B042E168D2F8883023F440730B430E
:107E6000C2F88830B1F5807F02BFD36843F08073D9
:107E7000D3602A040ED54FF0B042216BD2F888307F
:107E800023F040430B43C2F8883019B9D36843F05C
:107E90008073D3606B0410D54FF0B042E16AD2F822
:107EA000883023F040530B43B1F1005FC2F88830B3
:107EB00003D1D36843F48033D360304670BDFDF7FF
:107EC00061FA401BB0427FF665AF79E700040058C5
:107ED00030B590F82C30012B02464FF0020022D032
:107EE000174B82F82D00CA24012582F82C505C62C1
:107EF00053245C62B1F5807F146B996914D121F42D
:107F000088519961596C24F0010421F000415964B1
:107F10001463DD650A4BFF2159620020012382F8BA
:107F20002D3082F82C0030BD21F408519961D96CB4
:107F300024F0020421F00041D9641463D865E9E714
:107F40000028004070B50B4E036B756D1D40EA07AD
:107F5000044603D50123F365FDF733FBAB0704D5D6
:107F60000223F365204600F0C9F9012384F82D307F
:107F700070BD00BF0028004038B50A4CE36823F00C
:107F80002003E360FDF7FEF90546E3689B0601D593
:107F9000002038BDFDF7F6F9401BB0F57A7FF4D923
:107FA0000320F6E700280040F8B5114DEC6814F006
:107FB000400406461AD1EB6843F08003EB60FDF7FE
:107FC000E1F923460746EC6814F0400401D1032B85
:107FD00001D11846F8BDFDF7D5F9C01BB0F57A7F81
:107FE000234684BF032386F82D30ECE70023F0E717
:107FF0000028004038B50F4CE36823F08003E360AD
:10800000A3699B06054606D4FFF7B6FF10B103200F
:1080100085F82D0038BDA36923F02003A361FFF785
:10802000ABFF10B1032085F82D00A36943F02003B6
:10803000A361EFE70028004038B5044600284BD084
:1080400090F82D3003F0FF021BB980F82C20FDF7CB
:1080500087F80223214D84F82D30EB68DB0636D4F7
:10806000CA236B6253236B622046FFF79DFF10B15A
:10807000FF236B6238BDAB6923F08E6323F04003AE
:10808000AB6121696368AA690B431343A269134377
:10809000AB61D4E9022343EA02432B61D4E90931FD
:1080A000EA680B4322F4F8521343EB602046FFF7D3
:1080B000A1FF0028DCD1D4E90713AA690B4322F001
:1080C0006042134362691343AB61FF236B62012378
:1080D00084F82D300020CDE70120CBE700280040B8
:1080E0000023092803D840EA0310C0B270470A38B9
:1080F0000133C0B2F5E700002DE9F04790F82C30CD
:10810000012B05464FF0020069D0012385F82C3081
:108110004E4B85F82D00DE6806F44076B6F5807F7C
:1081200078D04C69087891F8019091F802A091F804
:108130002470002A55D19B6913F0400308BFCB700F
:10814000FFF7CEFF80464846FFF7CAFF024650467B
:10815000FFF7C6FF81463846FFF7C2FF0B6ACF78AC
:10816000234343EA875343EA090343EA084343EAC4
:10817000022343EA0063354ACA205062532050620A
:108180008C6A8869B4F5807F946945D124F4885459
:1081900094610124D465B6F5807F09BFCB6913646F
:1081A0000343536418BF5064284B4A681A672A6B0C
:1081B00042F001022A639A6942F488529A61244A81
:1081C000D2F8803043F40033C2F880301F4BFF22D6
:1081D0005A620020012385F82D3085F82C00BDE877
:1081E000F087B4F1803F07D0B4F5000F04D09B694D
:1081F00013F0400308BFCB700B6ACA781C4344EAF3
:108200000A0444EA004343EA092343EA825343EA67
:108210000763B0E70023AEE724F408549461022416
:10822000D465B6F5807F09BFCB6993640343D364FB
:1082300018BFD064054B4A685A672A6B42F00202A5
:108240002A639A6942F40852B8E700BF0028004048
:108250000008005890F82C20012A03464FF0020035
:1082600012D00A4A83F82D00CA215162532151626B
:10827000916941F020019161FF21516200200122AA
:1082800083F82D2083F82C00704700BF00280040A1
:1082900090F82C20012A03464FF0020019D00D4A15
:1082A00083F82D00CA2151625321516291690A4815
:1082B00041F080019161D0F8801041F48021C0F834
:1082C0008010FF2151620020012283F82D2083F8C5
:1082D0002C0070470028004000080058064B5A6DDB
:1082E000520610B5044603D54022DA65FDF76CF955
:1082F000012384F82D3010BD00280040704789000C
:1083000001F1804101F531410A607047890001F1B6
:10831000804101F53141086870470000034AD2F8F6
:10832000903043F40043C2F8903070470004005886
:10833000034AD2F8903023F40043C2F890307047DB
:1083400000040058074B1A6822F040021A6040F4FB
:1083500041704FF4B85218605A601A6842F04002F7
:108360001A6070470000015837B5054600284ED006
:10837000837903F0FF046BB1032C0BD0254B4FF432
:1083800000629A612868FFF7DDFF002401232B714A
:10839000AC602FE000236B712846FCF787FF1E4A74
:1083A000D2F8903043F48053C2F89030002CE5D1DD
:1083B00002234FF0B042AB71D2F8943023F4004363
:1083C000C2F89430154B1B681C214B43DB0C642115
:1083D0004B430193019B93B90124AC60FFF79EFFCF
:1083E0000C4B9A6842F400629A604FF400629A6102
:1083F000002CC7D00123AB71204603B030BD019BD8
:10840000013B0193D2F894305B04E3D4E6E7012406
:10841000F2E700BF000400580008005814000020D4
:1084200037B5174D2B6802461C204343DB0C6420F4
:10843000434314480193019B93B901209060114C70
:1084400021732B681C214B43DB0C64214B430193AC
:10845000019B6BB9012090600A4BDB6803B030BD13
:10846000019B013B019383689C07E4D50020E6E76C
:10847000019B013B0193A368DB07E9D5ECE700BF53
:10848000140000200000015837B5184D2B68024633
:108490001C204343DB0C6420434315480193019B9C
:1084A000A3B901209060124CFF2323732B681C2575
:1084B0006B43DB0C64256B430193019B73B9012073
:1084C00090600B4BDB680B7003B030BD019B013B30
:1084D000019383689C07E2D50020E4E7019B013B00
:1084E0000193A368DB07E8D5EBE700BF1400002089
:1084F000000001580E4B0F491B681822534382B0ED
:108500001B0D6422534301934B69019AC3F380030B
:1085100022B902238360012002B07047019A013A18
:1085200001924A69920701D5002BEDD10020F3E7B3
:10853000140000200004005807B50379012B0FD167
:108540000A4B1B68182253431B0C0193FFF7F0FEE4
:10855000019B013B0193019B002BF9D1FFF7DEFE4C
:1085600003B05DF804EBFFF7C5BF00BF14000020A7
:10857000F8B51E468379012B154604460F46DAB23C
:108580002DD14379012B2AD0022342718371FFF749
:10859000D3FF0D212046FFF7CBFEFFF741FF390A3D
:1085A0002046FFF73DFFF9B22046FFF739FF2E4482
:1085B000B5420ED12046FFF7B1FEFFF79BFFA06842
:1085C00001230038A3714FF0000318BF012063712D
:1085D000F8BD15F8011B2046FFF722FFE8E702204F
:1085E000F6E7F8B51E468379012B154604460F467B
:1085F000DAB22FD14379012B2CD04271FFF79CFFC7
:108600001D212046FFF794FEFFF70AFF390A204696
:10861000FFF706FFF9B22046FFF702FF00212046D0
:10862000FFF7FEFE2E44B5420ED12046FFF776FE40
:10863000FFF760FFA06801230038A3714FF000032B
:1086400018BF01206371F8BD29462046FFF71CFFC3
:108650000135E8E70220F6E7F8B51F468379012BDC
:10866000154604460E46DAB22CD14379012B29D0A7
:108670004271FFF761FF06F0EF03A3F1840253425A
:108680005341237131462046FFF752FEFFF7C8FEE3
:108690002F44AF4210D1FFF741FE842E02D0204676
:1086A000FFF728FFA06801230038A3714FF00003F3
:1086B00018BF01206371F8BD15F8011B2046FFF7B4
:1086C000AFFEE6E70220F6E7F8B51E468379012BF8
:1086D000154604460F46DAB227D14379012B24D040
:1086E0004271FFF729FF39462046FFF721FEFFF7C9
:1086F00097FE00212046FFF793FE2E44B5420ED18F
:108700002046FFF70BFEFFF7F5FEA06801230038B7
:10871000A3714FF0000318BF01206371F8BD294613
:108720002046FFF7B1FE0135E8E70220F6E737B54E
:108730000023ADF8043001AA022312210546FFF7F9
:10874000C3FFBDF80440022364BA1946A4B201AACB
:108750002846FFF781FFE30702D5284603F00AF811
:1087600004F04203022B02D1284603F009F8600707
:1087700002D5284603F02EF8210702D5284603F03B
:108780002FF8E20602D5284603F030F8A30602D5FA
:10879000284603F019F8600602D5284602F0F6FFD5
:1087A000210606D514F4807118BF0121284602F075
:1087B000F3FFA20502D5284602F0FEFF630402D5AE
:1087C000284603F019F803B030BDF8B51E4683798A
:1087D000012B154604460F46DAB227D14379012B07
:1087E00024D04271FFF7A8FE0E212046FFF7A0FD1E
:1087F000FFF716FE39462046FFF712FE2E44B5421B
:108800000ED12046FFF78AFDFFF774FEA068012312
:108810000038A3714FF0000318BF01206371F8BD49
:1088200015F8011B2046FFF7FBFDE8E70220F6E7FD
:10883000F8B51E468379012B154604460F46DAB279
:108840002BD14379012B28D04271FFF775FE1E21F1
:108850002046FFF76DFDFFF7E3FD39462046FFF7A1
:10886000DFFD00212046FFF7DBFD2E44B5420ED18F
:108870002046FFF753FDFFF73DFEA06801230038B7
:10888000A3714FF0000318BF01206371F8BD2946A2
:108890002046FFF7F9FD0135E8E70220F6E7026818
:1088A00052E8003F23F0C00342E80031026800298B
:1088B000F5D102F1080353E8003F23F4000302F16D
:1088C000080C4CE800310029F3D12023C0F888308F
:1088D0007047000010B5026852E8003F23F490731F
:1088E00042E8003102680029F5D10F4C02F108037B
:1088F00053E8003F234002F1080C4CE80031002906
:10890000F4D1C36E012B07D152E8003F23F01003CE
:1089100042E800310029F7D12023C0F88C30002331
:10892000C366436710BD00BFFEFFFFEFF8B5044606
:108930001346D4F88850202D32D1F1B1EAB1E06F5E
:10894000A4F85620A4F8542000262122C4F89060F0
:108950002165C4F88820226888B1124FC762124F7F
:108960000763124F2832C0E90D76FEF773F930B174
:108970001023C4F89030C4F888500120F8BD236853
:1089800040221A62226802F1080353E8003F43F0D4
:10899000800302F1080141E800300028F3D1EDE73F
:1089A0000220EBE7B1890008F9890008058A000870
:1089B00008B50346806A1B681B6813F0200317D1B3
:1089C000A0F85630026802F1080353E8003F23F094
:1089D0008003083242E8003102680029F2D152E8EF
:1089E000003F43F0400342E800310029F7D108BDC1
:1089F000FCF720FFFBE7704708B5806AFFF7FBFF35
:108A000008BD7047806A38B50468D0F88830D0F85F
:108A10008C50A268120606D5212B04D10023A0F8A1
:108A20005630FFF73CFFA3685B0606D5222D04D124
:108A30000023A0F85E30FFF74DFFD0F8903043F0F0
:108A40001003C0F89030FFF7DCFF38BD08B5806A2E
:108A50000023A0F85E30A0F85630FFF7D2FF08BD23
:108A6000704700000368D9691A682DE9F04140F6A3
:108A70000F0631429D68044610D18E0640F1978062
:108A800002F0200605F080573E4300F09080436FCF
:108A9000002B00F08580BDE8F0411847AB4EAC4894
:108AA0002E401040304300F08280CF0709D5D0051A
:108AB00007D501201862D4F8900040F00100C4F8F6
:108AC00090008F0709D5E80707D502201862D4F86F
:108AD000900040F00400C4F890004F0709D5E80763
